{
	"contracts/Demo.sol": {
		"Demo": {
			"abi": [
				{
					"anonymous": false,
					"inputs": [
						{
							"indexed": true,
							"internalType": "uint256",
							"name": "recordId",
							"type": "uint256"
						},
						{
							"indexed": true,
							"internalType": "address",
							"name": "owner",
							"type": "address"
						},
						{
							"indexed": false,
							"internalType": "bytes",
							"name": "payload",
							"type": "bytes"
						},
						{
							"indexed": false,
							"internalType": "bytes32",
							"name": "payloadHash",
							"type": "bytes32"
						},
						{
							"indexed": false,
							"internalType": "bytes32",
							"name": "pqcProofHash",
							"type": "bytes32"
						},
						{
							"indexed": false,
							"internalType": "uint256",
							"name": "appNonce",
							"type": "uint256"
						},
						{
							"indexed": false,
							"internalType": "uint256",
							"name": "timestamp",
							"type": "uint256"
						},
						{
							"indexed": false,
							"internalType": "bool",
							"name": "encrypted",
							"type": "bool"
						},
						{
							"indexed": false,
							"internalType": "string",
							"name": "mode",
							"type": "string"
						}
					],
					"name": "RecordStored",
					"type": "event"
				},
				{
					"inputs": [
						{
							"internalType": "uint256",
							"name": "recordId",
							"type": "uint256"
						}
					],
					"name": "getRecord",
					"outputs": [
						{
							"internalType": "uint256",
							"name": "",
							"type": "uint256"
						},
						{
							"internalType": "address",
							"name": "",
							"type": "address"
						},
						{
							"internalType": "bytes",
							"name": "",
							"type": "bytes"
						},
						{
							"internalType": "bytes32",
							"name": "",
							"type": "bytes32"
						},
						{
							"internalType": "bytes32",
							"name": "",
							"type": "bytes32"
						},
						{
							"internalType": "uint256",
							"name": "",
							"type": "uint256"
						},
						{
							"internalType": "uint256",
							"name": "",
							"type": "uint256"
						},
						{
							"internalType": "bool",
							"name": "",
							"type": "bool"
						},
						{
							"internalType": "string",
							"name": "",
							"type": "string"
						}
					],
					"stateMutability": "view",
					"type": "function"
				},
				{
					"inputs": [
						{
							"internalType": "address",
							"name": "",
							"type": "address"
						}
					],
					"name": "lastNonceBySender",
					"outputs": [
						{
							"internalType": "uint256",
							"name": "",
							"type": "uint256"
						}
					],
					"stateMutability": "view",
					"type": "function"
				},
				{
					"inputs": [],
					"name": "lastRecordId",
					"outputs": [
						{
							"internalType": "uint256",
							"name": "",
							"type": "uint256"
						}
					],
					"stateMutability": "view",
					"type": "function"
				},
				{
					"inputs": [
						{
							"internalType": "bytes",
							"name": "payload",
							"type": "bytes"
						},
						{
							"internalType": "bytes32",
							"name": "payloadHash",
							"type": "bytes32"
						},
						{
							"internalType": "bytes32",
							"name": "pqcProofHash",
							"type": "bytes32"
						},
						{
							"internalType": "uint256",
							"name": "appNonce",
							"type": "uint256"
						},
						{
							"internalType": "uint256",
							"name": "timestamp",
							"type": "uint256"
						},
						{
							"internalType": "bool",
							"name": "encrypted",
							"type": "bool"
						},
						{
							"internalType": "string",
							"name": "mode",
							"type": "string"
						}
					],
					"name": "storeRecord",
					"outputs": [],
					"stateMutability": "nonpayable",
					"type": "function"
				}
			],
			"devdoc": {
				"kind": "dev",
				"methods": {},
				"version": 1
			},
			"evm": {
				"assembly": "    /* \"contracts/Demo.sol\":58:2515  contract Demo {... */\n  mstore(0x40, 0x80)\n  callvalue\n  dup1\n  iszero\n  tag_1\n  jumpi\n  revert(0x00, 0x00)\ntag_1:\n  pop\n  dataSize(sub_0)\n  dup1\n  dataOffset(sub_0)\n  0x00\n  codecopy\n  0x00\n  return\nstop\n\nsub_0: assembly {\n        /* \"contracts/Demo.sol\":58:2515  contract Demo {... */\n      mstore(0x40, 0x80)\n      callvalue\n      dup1\n      iszero\n      tag_1\n      jumpi\n      revert(0x00, 0x00)\n    tag_1:\n      pop\n      jumpi(tag_2, lt(calldatasize, 0x04))\n      shr(0xe0, calldataload(0x00))\n      dup1\n      0x03e9e609\n      eq\n      tag_3\n      jumpi\n      dup1\n      0x38cbdb19\n      eq\n      tag_4\n      jumpi\n      dup1\n      0x55438bf6\n      eq\n      tag_5\n      jumpi\n      dup1\n      0xfea68189\n      eq\n      tag_6\n      jumpi\n    tag_2:\n      revert(0x00, 0x00)\n        /* \"contracts/Demo.sol\":1859:2513  function getRecord(... */\n    tag_3:\n      tag_7\n      0x04\n      dup1\n      calldatasize\n      sub\n      dup2\n      add\n      swap1\n      tag_8\n      swap2\n      swap1\n      tag_9\n      jump\t// in\n    tag_8:\n      tag_10\n      jump\t// in\n    tag_7:\n      mload(0x40)\n      tag_11\n      swap10\n      swap9\n      swap8\n      swap7\n      swap6\n      swap5\n      swap4\n      swap3\n      swap2\n      swap1\n      tag_12\n      jump\t// in\n    tag_11:\n      mload(0x40)\n      dup1\n      swap2\n      sub\n      swap1\n      return\n        /* \"contracts/Demo.sol\":751:1853  function storeRecord(... */\n    tag_4:\n      tag_13\n      0x04\n      dup1\n      calldatasize\n      sub\n      dup2\n      add\n      swap1\n      tag_14\n      swap2\n      swap1\n      tag_15\n      jump\t// in\n    tag_14:\n      tag_16\n      jump\t// in\n    tag_13:\n      stop\n        /* \"contracts/Demo.sol\":416:468  mapping(address => uint256) public lastNonceBySender */\n    tag_5:\n      tag_17\n      0x04\n      dup1\n      calldatasize\n      sub\n      dup2\n      add\n      swap1\n      tag_18\n      swap2\n      swap1\n      tag_19\n      jump\t// in\n    tag_18:\n      tag_20\n      jump\t// in\n    tag_17:\n      mload(0x40)\n      tag_21\n      swap2\n      swap1\n      tag_22\n      jump\t// in\n    tag_21:\n      mload(0x40)\n      dup1\n      swap2\n      sub\n      swap1\n      return\n        /* \"contracts/Demo.sol\":334:361  uint256 public lastRecordId */\n    tag_6:\n      tag_23\n      tag_24\n      jump\t// in\n    tag_23:\n      mload(0x40)\n      tag_25\n      swap2\n      swap1\n      tag_22\n      jump\t// in\n    tag_25:\n      mload(0x40)\n      dup1\n      swap2\n      sub\n      swap1\n      return\n        /* \"contracts/Demo.sol\":1859:2513  function getRecord(... */\n    tag_10:\n        /* \"contracts/Demo.sol\":1968:1975  uint256 */\n      0x00\n        /* \"contracts/Demo.sol\":1989:1996  address */\n      0x00\n        /* \"contracts/Demo.sol\":2010:2022  bytes memory */\n      0x60\n        /* \"contracts/Demo.sol\":2036:2043  bytes32 */\n      0x00\n        /* \"contracts/Demo.sol\":2057:2064  bytes32 */\n      0x00\n        /* \"contracts/Demo.sol\":2078:2085  uint256 */\n      0x00\n        /* \"contracts/Demo.sol\":2099:2106  uint256 */\n      0x00\n        /* \"contracts/Demo.sol\":2120:2124  bool */\n      0x00\n        /* \"contracts/Demo.sol\":2138:2151  string memory */\n      0x60\n        /* \"contracts/Demo.sol\":2176:2197  Record storage record */\n      0x00\n        /* \"contracts/Demo.sol\":2200:2207  records */\n      0x01\n        /* \"contracts/Demo.sol\":2200:2217  records[recordId] */\n      0x00\n        /* \"contracts/Demo.sol\":2208:2216  recordId */\n      dup13\n        /* \"contracts/Demo.sol\":2200:2217  records[recordId] */\n      dup2\n      mstore\n      0x20\n      add\n      swap1\n      dup2\n      mstore\n      0x20\n      add\n      0x00\n      keccak256\n        /* \"contracts/Demo.sol\":2176:2217  Record storage record = records[recordId] */\n      swap1\n      pop\n        /* \"contracts/Demo.sol\":2248:2254  record */\n      dup1\n        /* \"contracts/Demo.sol\":2248:2263  record.recordId */\n      0x00\n      add\n      sload\n        /* \"contracts/Demo.sol\":2277:2283  record */\n      dup2\n        /* \"contracts/Demo.sol\":2277:2289  record.owner */\n      0x01\n      add\n      0x00\n      swap1\n      sload\n      swap1\n      0x0100\n      exp\n      swap1\n      div\n      0xffffffffffffffffffffffffffffffffffffffff\n      and\n        /* \"contracts/Demo.sol\":2303:2309  record */\n      dup3\n        /* \"contracts/Demo.sol\":2303:2317  record.payload */\n      0x02\n      add\n        /* \"contracts/Demo.sol\":2331:2337  record */\n      dup4\n        /* \"contracts/Demo.sol\":2331:2349  record.payloadHash */\n      0x03\n      add\n      sload\n        /* \"contracts/Demo.sol\":2363:2369  record */\n      dup5\n        /* \"contracts/Demo.sol\":2363:2382  record.pqcProofHash */\n      0x04\n      add\n      sload\n        /* \"contracts/Demo.sol\":2396:2402  record */\n      dup6\n        /* \"contracts/Demo.sol\":2396:2411  record.appNonce */\n      0x05\n      add\n      sload\n        /* \"contracts/Demo.sol\":2425:2431  record */\n      dup7\n        /* \"contracts/Demo.sol\":2425:2441  record.timestamp */\n      0x06\n      add\n      sload\n        /* \"contracts/Demo.sol\":2455:2461  record */\n      dup8\n        /* \"contracts/Demo.sol\":2455:2471  record.encrypted */\n      0x07\n      add\n      0x00\n      swap1\n      sload\n      swap1\n      0x0100\n      exp\n      swap1\n      div\n      0xff\n      and\n        /* \"contracts/Demo.sol\":2485:2491  record */\n      dup9\n        /* \"contracts/Demo.sol\":2485:2496  record.mode */\n      0x08\n      add\n        /* \"contracts/Demo.sol\":2227:2506  return (... */\n      dup7\n      dup1\n      sload\n      tag_27\n      swap1\n      tag_28\n      jump\t// in\n    tag_27:\n      dup1\n      0x1f\n      add\n      0x20\n      dup1\n      swap2\n      div\n      mul\n      0x20\n      add\n      mload(0x40)\n      swap1\n      dup2\n      add\n      0x40\n      mstore\n      dup1\n      swap3\n      swap2\n      swap1\n      dup2\n      dup2\n      mstore\n      0x20\n      add\n      dup3\n      dup1\n      sload\n      tag_29\n      swap1\n      tag_28\n      jump\t// in\n    tag_29:\n      dup1\n      iszero\n      tag_30\n      jumpi\n      dup1\n      0x1f\n      lt\n      tag_31\n      jumpi\n      0x0100\n      dup1\n      dup4\n      sload\n      div\n      mul\n      dup4\n      mstore\n      swap2\n      0x20\n      add\n      swap2\n      jump(tag_30)\n    tag_31:\n      dup3\n      add\n      swap2\n      swap1\n      0x00\n      mstore\n      keccak256(0x00, 0x20)\n      swap1\n    tag_32:\n      dup2\n      sload\n      dup2\n      mstore\n      swap1\n      0x01\n      add\n      swap1\n      0x20\n      add\n      dup1\n      dup4\n      gt\n      tag_32\n      jumpi\n      dup3\n      swap1\n      sub\n      0x1f\n      and\n      dup3\n      add\n      swap2\n    tag_30:\n      pop\n      pop\n      pop\n      pop\n      pop\n      swap7\n      pop\n      dup1\n      dup1\n      sload\n      tag_33\n      swap1\n      tag_28\n      jump\t// in\n    tag_33:\n      dup1\n      0x1f\n      add\n      0x20\n      dup1\n      swap2\n      div\n      mul\n      0x20\n      add\n      mload(0x40)\n      swap1\n      dup2\n      add\n      0x40\n      mstore\n      dup1\n      swap3\n      swap2\n      swap1\n      dup2\n      dup2\n      mstore\n      0x20\n      add\n      dup3\n      dup1\n      sload\n      tag_34\n      swap1\n      tag_28\n      jump\t// in\n    tag_34:\n      dup1\n      iszero\n      tag_35\n      jumpi\n      dup1\n      0x1f\n      lt\n      tag_36\n      jumpi\n      0x0100\n      dup1\n      dup4\n      sload\n      div\n      mul\n      dup4\n      mstore\n      swap2\n      0x20\n      add\n      swap2\n      jump(tag_35)\n    tag_36:\n      dup3\n      add\n      swap2\n      swap1\n      0x00\n      mstore\n      keccak256(0x00, 0x20)\n      swap1\n    tag_37:\n      dup2\n      sload\n      dup2\n      mstore\n      swap1\n      0x01\n      add\n      swap1\n      0x20\n      add\n      dup1\n      dup4\n      gt\n      tag_37\n      jumpi\n      dup3\n      swap1\n      sub\n      0x1f\n      and\n      dup3\n      add\n      swap2\n    tag_35:\n      pop\n      pop\n      pop\n      pop\n      pop\n      swap1\n      pop\n      swap10\n      pop\n      swap10\n      pop\n      swap10\n      pop\n      swap10\n      pop\n      swap10\n      pop\n      swap10\n      pop\n      swap10\n      pop\n      swap10\n      pop\n      swap10\n      pop\n      pop\n        /* \"contracts/Demo.sol\":1859:2513  function getRecord(... */\n      swap2\n      swap4\n      swap6\n      swap8\n      swap10\n      swap1\n      swap3\n      swap5\n      swap7\n      swap9\n      pop\n      jump\t// out\n        /* \"contracts/Demo.sol\":751:1853  function storeRecord(... */\n    tag_16:\n        /* \"contracts/Demo.sol\":1008:1025  lastNonceBySender */\n      0x02\n        /* \"contracts/Demo.sol\":1008:1037  lastNonceBySender[msg.sender] */\n      0x00\n        /* \"contracts/Demo.sol\":1026:1036  msg.sender */\n      caller\n        /* \"contracts/Demo.sol\":1008:1037  lastNonceBySender[msg.sender] */\n      0xffffffffffffffffffffffffffffffffffffffff\n      and\n      0xffffffffffffffffffffffffffffffffffffffff\n      and\n      dup2\n      mstore\n      0x20\n      add\n      swap1\n      dup2\n      mstore\n      0x20\n      add\n      0x00\n      keccak256\n      sload\n        /* \"contracts/Demo.sol\":997:1005  appNonce */\n      dup5\n        /* \"contracts/Demo.sol\":997:1037  appNonce > lastNonceBySender[msg.sender] */\n      gt\n        /* \"contracts/Demo.sol\":989:1053  require(appNonce > lastNonceBySender[msg.sender], \"stale nonce\") */\n      tag_39\n      jumpi\n      mload(0x40)\n      0x08c379a000000000000000000000000000000000000000000000000000000000\n      dup2\n      mstore\n      0x04\n      add\n      tag_40\n      swap1\n      tag_41\n      jump\t// in\n    tag_40:\n      mload(0x40)\n      dup1\n      swap2\n      sub\n      swap1\n      revert\n    tag_39:\n        /* \"contracts/Demo.sol\":1093:1104  payloadHash */\n      dup6\n        /* \"contracts/Demo.sol\":1081:1088  payload */\n      dup8\n        /* \"contracts/Demo.sol\":1071:1089  keccak256(payload) */\n      dup1\n      mload\n      swap1\n      0x20\n      add\n      keccak256\n        /* \"contracts/Demo.sol\":1071:1104  keccak256(payload) == payloadHash */\n      eq\n        /* \"contracts/Demo.sol\":1063:1130  require(keccak256(payload) == payloadHash, \"payload hash mismatch\") */\n      tag_42\n      jumpi\n      mload(0x40)\n      0x08c379a000000000000000000000000000000000000000000000000000000000\n      dup2\n      mstore\n      0x04\n      add\n      tag_43\n      swap1\n      tag_44\n      jump\t// in\n    tag_43:\n      mload(0x40)\n      dup1\n      swap2\n      sub\n      swap1\n      revert\n    tag_42:\n        /* \"contracts/Demo.sol\":1141:1157  uint256 recordId */\n      0x00\n        /* \"contracts/Demo.sol\":1175:1176  1 */\n      0x01\n        /* \"contracts/Demo.sol\":1160:1172  lastRecordId */\n      sload(0x00)\n        /* \"contracts/Demo.sol\":1160:1176  lastRecordId + 1 */\n      tag_45\n      swap2\n      swap1\n      tag_46\n      jump\t// in\n    tag_45:\n        /* \"contracts/Demo.sol\":1141:1176  uint256 recordId = lastRecordId + 1 */\n      swap1\n      pop\n        /* \"contracts/Demo.sol\":1201:1209  recordId */\n      dup1\n        /* \"contracts/Demo.sol\":1186:1198  lastRecordId */\n      0x00\n        /* \"contracts/Demo.sol\":1186:1209  lastRecordId = recordId */\n      dup2\n      swap1\n      sstore\n      pop\n        /* \"contracts/Demo.sol\":1240:1553  Record({... */\n      mload(0x40)\n      dup1\n      0x0120\n      add\n      0x40\n      mstore\n      dup1\n        /* \"contracts/Demo.sol\":1271:1279  recordId */\n      dup3\n        /* \"contracts/Demo.sol\":1240:1553  Record({... */\n      dup2\n      mstore\n      0x20\n      add\n        /* \"contracts/Demo.sol\":1300:1310  msg.sender */\n      caller\n        /* \"contracts/Demo.sol\":1240:1553  Record({... */\n      0xffffffffffffffffffffffffffffffffffffffff\n      and\n      dup2\n      mstore\n      0x20\n      add\n        /* \"contracts/Demo.sol\":1333:1340  payload */\n      dup10\n        /* \"contracts/Demo.sol\":1240:1553  Record({... */\n      dup2\n      mstore\n      0x20\n      add\n        /* \"contracts/Demo.sol\":1367:1378  payloadHash */\n      dup9\n        /* \"contracts/Demo.sol\":1240:1553  Record({... */\n      dup2\n      mstore\n      0x20\n      add\n        /* \"contracts/Demo.sol\":1406:1418  pqcProofHash */\n      dup8\n        /* \"contracts/Demo.sol\":1240:1553  Record({... */\n      dup2\n      mstore\n      0x20\n      add\n        /* \"contracts/Demo.sol\":1442:1450  appNonce */\n      dup7\n        /* \"contracts/Demo.sol\":1240:1553  Record({... */\n      dup2\n      mstore\n      0x20\n      add\n        /* \"contracts/Demo.sol\":1475:1484  timestamp */\n      dup6\n        /* \"contracts/Demo.sol\":1240:1553  Record({... */\n      dup2\n      mstore\n      0x20\n      add\n        /* \"contracts/Demo.sol\":1509:1518  encrypted */\n      dup5\n        /* \"contracts/Demo.sol\":1240:1553  Record({... */\n      iszero\n      iszero\n      dup2\n      mstore\n      0x20\n      add\n        /* \"contracts/Demo.sol\":1538:1542  mode */\n      dup4\n        /* \"contracts/Demo.sol\":1240:1553  Record({... */\n      dup2\n      mstore\n      pop\n        /* \"contracts/Demo.sol\":1220:1227  records */\n      0x01\n        /* \"contracts/Demo.sol\":1220:1237  records[recordId] */\n      0x00\n        /* \"contracts/Demo.sol\":1228:1236  recordId */\n      dup4\n        /* \"contracts/Demo.sol\":1220:1237  records[recordId] */\n      dup2\n      mstore\n      0x20\n      add\n      swap1\n      dup2\n      mstore\n      0x20\n      add\n      0x00\n      keccak256\n        /* \"contracts/Demo.sol\":1220:1553  records[recordId] = Record({... */\n      0x00\n      dup3\n      add\n      mload\n      dup2\n      0x00\n      add\n      sstore\n      0x20\n      dup3\n      add\n      mload\n      dup2\n      0x01\n      add\n      exp(0x0100, 0x00)\n      dup2\n      sload\n      dup2\n      0xffffffffffffffffffffffffffffffffffffffff\n      mul\n      not\n      and\n      swap1\n      dup4\n      0xffffffffffffffffffffffffffffffffffffffff\n      and\n      mul\n      or\n      swap1\n      sstore\n      pop\n      0x40\n      dup3\n      add\n      mload\n      dup2\n      0x02\n      add\n      swap1\n      dup2\n      tag_47\n      swap2\n      swap1\n      tag_48\n      jump\t// in\n    tag_47:\n      pop\n      0x60\n      dup3\n      add\n      mload\n      dup2\n      0x03\n      add\n      sstore\n      0x80\n      dup3\n      add\n      mload\n      dup2\n      0x04\n      add\n      sstore\n      0xa0\n      dup3\n      add\n      mload\n      dup2\n      0x05\n      add\n      sstore\n      0xc0\n      dup3\n      add\n      mload\n      dup2\n      0x06\n      add\n      sstore\n      0xe0\n      dup3\n      add\n      mload\n      dup2\n      0x07\n      add\n      exp(0x0100, 0x00)\n      dup2\n      sload\n      dup2\n      0xff\n      mul\n      not\n      and\n      swap1\n      dup4\n      iszero\n      iszero\n      mul\n      or\n      swap1\n      sstore\n      pop\n      0x0100\n      dup3\n      add\n      mload\n      dup2\n      0x08\n      add\n      swap1\n      dup2\n      tag_49\n      swap2\n      swap1\n      tag_50\n      jump\t// in\n    tag_49:\n      pop\n      swap1\n      pop\n      pop\n        /* \"contracts/Demo.sol\":1596:1604  appNonce */\n      dup5\n        /* \"contracts/Demo.sol\":1564:1581  lastNonceBySender */\n      0x02\n        /* \"contracts/Demo.sol\":1564:1593  lastNonceBySender[msg.sender] */\n      0x00\n        /* \"contracts/Demo.sol\":1582:1592  msg.sender */\n      caller\n        /* \"contracts/Demo.sol\":1564:1593  lastNonceBySender[msg.sender] */\n      0xffffffffffffffffffffffffffffffffffffffff\n      and\n      0xffffffffffffffffffffffffffffffffffffffff\n      and\n      dup2\n      mstore\n      0x20\n      add\n      swap1\n      dup2\n      mstore\n      0x20\n      add\n      0x00\n      keccak256\n        /* \"contracts/Demo.sol\":1564:1604  lastNonceBySender[msg.sender] = appNonce */\n      dup2\n      swap1\n      sstore\n      pop\n        /* \"contracts/Demo.sol\":1668:1678  msg.sender */\n      caller\n        /* \"contracts/Demo.sol\":1620:1846  RecordStored(... */\n      0xffffffffffffffffffffffffffffffffffffffff\n      and\n        /* \"contracts/Demo.sol\":1646:1654  recordId */\n      dup2\n        /* \"contracts/Demo.sol\":1620:1846  RecordStored(... */\n      0xbdbfbcd69a5f0040eaa878242bf59ea691a9a9253833955bd4385afa9546ceab\n        /* \"contracts/Demo.sol\":1692:1699  payload */\n      dup11\n        /* \"contracts/Demo.sol\":1713:1724  payloadHash */\n      dup11\n        /* \"contracts/Demo.sol\":1738:1750  pqcProofHash */\n      dup11\n        /* \"contracts/Demo.sol\":1764:1772  appNonce */\n      dup11\n        /* \"contracts/Demo.sol\":1786:1795  timestamp */\n      dup11\n        /* \"contracts/Demo.sol\":1809:1818  encrypted */\n      dup11\n        /* \"contracts/Demo.sol\":1832:1836  mode */\n      dup11\n        /* \"contracts/Demo.sol\":1620:1846  RecordStored(... */\n      mload(0x40)\n      tag_51\n      swap8\n      swap7\n      swap6\n      swap5\n      swap4\n      swap3\n      swap2\n      swap1\n      tag_52\n      jump\t// in\n    tag_51:\n      mload(0x40)\n      dup1\n      swap2\n      sub\n      swap1\n      log3\n        /* \"contracts/Demo.sol\":979:1853  {... */\n      pop\n        /* \"contracts/Demo.sol\":751:1853  function storeRecord(... */\n      pop\n      pop\n      pop\n      pop\n      pop\n      pop\n      pop\n      jump\t// out\n        /* \"contracts/Demo.sol\":416:468  mapping(address => uint256) public lastNonceBySender */\n    tag_20:\n      mstore(0x20, 0x02)\n      dup1\n      0x00\n      mstore\n      keccak256(0x00, 0x40)\n      0x00\n      swap2\n      pop\n      swap1\n      pop\n      sload\n      dup2\n      jump\t// out\n        /* \"contracts/Demo.sol\":334:361  uint256 public lastRecordId */\n    tag_24:\n      sload(0x00)\n      dup2\n      jump\t// out\n        /* \"#utility.yul\":7:82   */\n    tag_53:\n        /* \"#utility.yul\":40:46   */\n      0x00\n        /* \"#utility.yul\":73:75   */\n      0x40\n        /* \"#utility.yul\":67:76   */\n      mload\n        /* \"#utility.yul\":57:76   */\n      swap1\n      pop\n        /* \"#utility.yul\":7:82   */\n      swap1\n      jump\t// out\n        /* \"#utility.yul\":88:205   */\n    tag_54:\n        /* \"#utility.yul\":197:198   */\n      0x00\n        /* \"#utility.yul\":194:195   */\n      0x00\n        /* \"#utility.yul\":187:199   */\n      revert\n        /* \"#utility.yul\":211:328   */\n    tag_55:\n        /* \"#utility.yul\":320:321   */\n      0x00\n        /* \"#utility.yul\":317:318   */\n      0x00\n        /* \"#utility.yul\":310:322   */\n      revert\n        /* \"#utility.yul\":334:411   */\n    tag_56:\n        /* \"#utility.yul\":371:378   */\n      0x00\n        /* \"#utility.yul\":400:405   */\n      dup2\n        /* \"#utility.yul\":389:405   */\n      swap1\n      pop\n        /* \"#utility.yul\":334:411   */\n      swap2\n      swap1\n      pop\n      jump\t// out\n        /* \"#utility.yul\":417:539   */\n    tag_57:\n        /* \"#utility.yul\":490:514   */\n      tag_122\n        /* \"#utility.yul\":508:513   */\n      dup2\n        /* \"#utility.yul\":490:514   */\n      tag_56\n      jump\t// in\n    tag_122:\n        /* \"#utility.yul\":483:488   */\n      dup2\n        /* \"#utility.yul\":480:515   */\n      eq\n        /* \"#utility.yul\":470:533   */\n      tag_123\n      jumpi\n        /* \"#utility.yul\":529:530   */\n      0x00\n        /* \"#utility.yul\":526:527   */\n      0x00\n        /* \"#utility.yul\":519:531   */\n      revert\n        /* \"#utility.yul\":470:533   */\n    tag_123:\n        /* \"#utility.yul\":417:539   */\n      pop\n      jump\t// out\n        /* \"#utility.yul\":545:684   */\n    tag_58:\n        /* \"#utility.yul\":591:596   */\n      0x00\n        /* \"#utility.yul\":629:635   */\n      dup2\n        /* \"#utility.yul\":616:636   */\n      calldataload\n        /* \"#utility.yul\":607:636   */\n      swap1\n      pop\n        /* \"#utility.yul\":645:678   */\n      tag_125\n        /* \"#utility.yul\":672:677   */\n      dup2\n        /* \"#utility.yul\":645:678   */\n      tag_57\n      jump\t// in\n    tag_125:\n        /* \"#utility.yul\":545:684   */\n      swap3\n      swap2\n      pop\n      pop\n      jump\t// out\n        /* \"#utility.yul\":690:1019   */\n    tag_9:\n        /* \"#utility.yul\":749:755   */\n      0x00\n        /* \"#utility.yul\":798:800   */\n      0x20\n        /* \"#utility.yul\":786:795   */\n      dup3\n        /* \"#utility.yul\":777:784   */\n      dup5\n        /* \"#utility.yul\":773:796   */\n      sub\n        /* \"#utility.yul\":769:801   */\n      slt\n        /* \"#utility.yul\":766:885   */\n      iszero\n      tag_127\n      jumpi\n        /* \"#utility.yul\":804:883   */\n      tag_128\n      tag_54\n      jump\t// in\n    tag_128:\n        /* \"#utility.yul\":766:885   */\n    tag_127:\n        /* \"#utility.yul\":924:925   */\n      0x00\n        /* \"#utility.yul\":949:1002   */\n      tag_129\n        /* \"#utility.yul\":994:1001   */\n      dup5\n        /* \"#utility.yul\":985:991   */\n      dup3\n        /* \"#utility.yul\":974:983   */\n      dup6\n        /* \"#utility.yul\":970:992   */\n      add\n        /* \"#utility.yul\":949:1002   */\n      tag_58\n      jump\t// in\n    tag_129:\n        /* \"#utility.yul\":939:1002   */\n      swap2\n      pop\n        /* \"#utility.yul\":895:1012   */\n      pop\n        /* \"#utility.yul\":690:1019   */\n      swap3\n      swap2\n      pop\n      pop\n      jump\t// out\n        /* \"#utility.yul\":1025:1143   */\n    tag_59:\n        /* \"#utility.yul\":1112:1136   */\n      tag_131\n        /* \"#utility.yul\":1130:1135   */\n      dup2\n        /* \"#utility.yul\":1112:1136   */\n      tag_56\n      jump\t// in\n    tag_131:\n        /* \"#utility.yul\":1107:1110   */\n      dup3\n        /* \"#utility.yul\":1100:1137   */\n      mstore\n        /* \"#utility.yul\":1025:1143   */\n      pop\n      pop\n      jump\t// out\n        /* \"#utility.yul\":1149:1275   */\n    tag_60:\n        /* \"#utility.yul\":1186:1193   */\n      0x00\n        /* \"#utility.yul\":1226:1268   */\n      0xffffffffffffffffffffffffffffffffffffffff\n        /* \"#utility.yul\":1219:1224   */\n      dup3\n        /* \"#utility.yul\":1215:1269   */\n      and\n        /* \"#utility.yul\":1204:1269   */\n      swap1\n      pop\n        /* \"#utility.yul\":1149:1275   */\n      swap2\n      swap1\n      pop\n      jump\t// out\n        /* \"#utility.yul\":1281:1377   */\n    tag_61:\n        /* \"#utility.yul\":1318:1325   */\n      0x00\n        /* \"#utility.yul\":1347:1371   */\n      tag_134\n        /* \"#utility.yul\":1365:1370   */\n      dup3\n        /* \"#utility.yul\":1347:1371   */\n      tag_60\n      jump\t// in\n    tag_134:\n        /* \"#utility.yul\":1336:1371   */\n      swap1\n      pop\n        /* \"#utility.yul\":1281:1377   */\n      swap2\n      swap1\n      pop\n      jump\t// out\n        /* \"#utility.yul\":1383:1501   */\n    tag_62:\n        /* \"#utility.yul\":1470:1494   */\n      tag_136\n        /* \"#utility.yul\":1488:1493   */\n      dup2\n        /* \"#utility.yul\":1470:1494   */\n      tag_61\n      jump\t// in\n    tag_136:\n        /* \"#utility.yul\":1465:1468   */\n      dup3\n        /* \"#utility.yul\":1458:1495   */\n      mstore\n        /* \"#utility.yul\":1383:1501   */\n      pop\n      pop\n      jump\t// out\n        /* \"#utility.yul\":1507:1605   */\n    tag_63:\n        /* \"#utility.yul\":1558:1564   */\n      0x00\n        /* \"#utility.yul\":1592:1597   */\n      dup2\n        /* \"#utility.yul\":1586:1598   */\n      mload\n        /* \"#utility.yul\":1576:1598   */\n      swap1\n      pop\n        /* \"#utility.yul\":1507:1605   */\n      swap2\n      swap1\n      pop\n      jump\t// out\n        /* \"#utility.yul\":1611:1779   */\n    tag_64:\n        /* \"#utility.yul\":1694:1705   */\n      0x00\n        /* \"#utility.yul\":1728:1734   */\n      dup3\n        /* \"#utility.yul\":1723:1726   */\n      dup3\n        /* \"#utility.yul\":1716:1735   */\n      mstore\n        /* \"#utility.yul\":1768:1772   */\n      0x20\n        /* \"#utility.yul\":1763:1766   */\n      dup3\n        /* \"#utility.yul\":1759:1773   */\n      add\n        /* \"#utility.yul\":1744:1773   */\n      swap1\n      pop\n        /* \"#utility.yul\":1611:1779   */\n      swap3\n      swap2\n      pop\n      pop\n      jump\t// out\n        /* \"#utility.yul\":1785:1924   */\n    tag_65:\n        /* \"#utility.yul\":1874:1880   */\n      dup3\n        /* \"#utility.yul\":1869:1872   */\n      dup2\n        /* \"#utility.yul\":1864:1867   */\n      dup4\n        /* \"#utility.yul\":1858:1881   */\n      mcopy\n        /* \"#utility.yul\":1915:1916   */\n      0x00\n        /* \"#utility.yul\":1906:1912   */\n      dup4\n        /* \"#utility.yul\":1901:1904   */\n      dup4\n        /* \"#utility.yul\":1897:1913   */\n      add\n        /* \"#utility.yul\":1890:1917   */\n      mstore\n        /* \"#utility.yul\":1785:1924   */\n      pop\n      pop\n      pop\n      jump\t// out\n        /* \"#utility.yul\":1930:2032   */\n    tag_66:\n        /* \"#utility.yul\":1971:1977   */\n      0x00\n        /* \"#utility.yul\":2022:2024   */\n      0x1f\n        /* \"#utility.yul\":2018:2025   */\n      not\n        /* \"#utility.yul\":2013:2015   */\n      0x1f\n        /* \"#utility.yul\":2006:2011   */\n      dup4\n        /* \"#utility.yul\":2002:2016   */\n      add\n        /* \"#utility.yul\":1998:2026   */\n      and\n        /* \"#utility.yul\":1988:2026   */\n      swap1\n      pop\n        /* \"#utility.yul\":1930:2032   */\n      swap2\n      swap1\n      pop\n      jump\t// out\n        /* \"#utility.yul\":2038:2411   */\n    tag_67:\n        /* \"#utility.yul\":2124:2127   */\n      0x00\n        /* \"#utility.yul\":2152:2190   */\n      tag_142\n        /* \"#utility.yul\":2184:2189   */\n      dup3\n        /* \"#utility.yul\":2152:2190   */\n      tag_63\n      jump\t// in\n    tag_142:\n        /* \"#utility.yul\":2206:2276   */\n      tag_143\n        /* \"#utility.yul\":2269:2275   */\n      dup2\n        /* \"#utility.yul\":2264:2267   */\n      dup6\n        /* \"#utility.yul\":2206:2276   */\n      tag_64\n      jump\t// in\n    tag_143:\n        /* \"#utility.yul\":2199:2276   */\n      swap4\n      pop\n        /* \"#utility.yul\":2285:2350   */\n      tag_144\n        /* \"#utility.yul\":2343:2349   */\n      dup2\n        /* \"#utility.yul\":2338:2341   */\n      dup6\n        /* \"#utility.yul\":2331:2335   */\n      0x20\n        /* \"#utility.yul\":2324:2329   */\n      dup7\n        /* \"#utility.yul\":2320:2336   */\n      add\n        /* \"#utility.yul\":2285:2350   */\n      tag_65\n      jump\t// in\n    tag_144:\n        /* \"#utility.yul\":2375:2404   */\n      tag_145\n        /* \"#utility.yul\":2397:2403   */\n      dup2\n        /* \"#utility.yul\":2375:2404   */\n      tag_66\n      jump\t// in\n    tag_145:\n        /* \"#utility.yul\":2370:2373   */\n      dup5\n        /* \"#utility.yul\":2366:2405   */\n      add\n        /* \"#utility.yul\":2359:2405   */\n      swap2\n      pop\n        /* \"#utility.yul\":2128:2411   */\n      pop\n        /* \"#utility.yul\":2038:2411   */\n      swap3\n      swap2\n      pop\n      pop\n      jump\t// out\n        /* \"#utility.yul\":2417:2494   */\n    tag_68:\n        /* \"#utility.yul\":2454:2461   */\n      0x00\n        /* \"#utility.yul\":2483:2488   */\n      dup2\n        /* \"#utility.yul\":2472:2488   */\n      swap1\n      pop\n        /* \"#utility.yul\":2417:2494   */\n      swap2\n      swap1\n      pop\n      jump\t// out\n        /* \"#utility.yul\":2500:2618   */\n    tag_69:\n        /* \"#utility.yul\":2587:2611   */\n      tag_148\n        /* \"#utility.yul\":2605:2610   */\n      dup2\n        /* \"#utility.yul\":2587:2611   */\n      tag_68\n      jump\t// in\n    tag_148:\n        /* \"#utility.yul\":2582:2585   */\n      dup3\n        /* \"#utility.yul\":2575:2612   */\n      mstore\n        /* \"#utility.yul\":2500:2618   */\n      pop\n      pop\n      jump\t// out\n        /* \"#utility.yul\":2624:2714   */\n    tag_70:\n        /* \"#utility.yul\":2658:2665   */\n      0x00\n        /* \"#utility.yul\":2701:2706   */\n      dup2\n        /* \"#utility.yul\":2694:2707   */\n      iszero\n        /* \"#utility.yul\":2687:2708   */\n      iszero\n        /* \"#utility.yul\":2676:2708   */\n      swap1\n      pop\n        /* \"#utility.yul\":2624:2714   */\n      swap2\n      swap1\n      pop\n      jump\t// out\n        /* \"#utility.yul\":2720:2829   */\n    tag_71:\n        /* \"#utility.yul\":2801:2822   */\n      tag_151\n        /* \"#utility.yul\":2816:2821   */\n      dup2\n        /* \"#utility.yul\":2801:2822   */\n      tag_70\n      jump\t// in\n    tag_151:\n        /* \"#utility.yul\":2796:2799   */\n      dup3\n        /* \"#utility.yul\":2789:2823   */\n      mstore\n        /* \"#utility.yul\":2720:2829   */\n      pop\n      pop\n      jump\t// out\n        /* \"#utility.yul\":2835:2934   */\n    tag_72:\n        /* \"#utility.yul\":2887:2893   */\n      0x00\n        /* \"#utility.yul\":2921:2926   */\n      dup2\n        /* \"#utility.yul\":2915:2927   */\n      mload\n        /* \"#utility.yul\":2905:2927   */\n      swap1\n      pop\n        /* \"#utility.yul\":2835:2934   */\n      swap2\n      swap1\n      pop\n      jump\t// out\n        /* \"#utility.yul\":2940:3109   */\n    tag_73:\n        /* \"#utility.yul\":3024:3035   */\n      0x00\n        /* \"#utility.yul\":3058:3064   */\n      dup3\n        /* \"#utility.yul\":3053:3056   */\n      dup3\n        /* \"#utility.yul\":3046:3065   */\n      mstore\n        /* \"#utility.yul\":3098:3102   */\n      0x20\n        /* \"#utility.yul\":3093:3096   */\n      dup3\n        /* \"#utility.yul\":3089:3103   */\n      add\n        /* \"#utility.yul\":3074:3103   */\n      swap1\n      pop\n        /* \"#utility.yul\":2940:3109   */\n      swap3\n      swap2\n      pop\n      pop\n      jump\t// out\n        /* \"#utility.yul\":3115:3492   */\n    tag_74:\n        /* \"#utility.yul\":3203:3206   */\n      0x00\n        /* \"#utility.yul\":3231:3270   */\n      tag_155\n        /* \"#utility.yul\":3264:3269   */\n      dup3\n        /* \"#utility.yul\":3231:3270   */\n      tag_72\n      jump\t// in\n    tag_155:\n        /* \"#utility.yul\":3286:3357   */\n      tag_156\n        /* \"#utility.yul\":3350:3356   */\n      dup2\n        /* \"#utility.yul\":3345:3348   */\n      dup6\n        /* \"#utility.yul\":3286:3357   */\n      tag_73\n      jump\t// in\n    tag_156:\n        /* \"#utility.yul\":3279:3357   */\n      swap4\n      pop\n        /* \"#utility.yul\":3366:3431   */\n      tag_157\n        /* \"#utility.yul\":3424:3430   */\n      dup2\n        /* \"#utility.yul\":3419:3422   */\n      dup6\n        /* \"#utility.yul\":3412:3416   */\n      0x20\n        /* \"#utility.yul\":3405:3410   */\n      dup7\n        /* \"#utility.yul\":3401:3417   */\n      add\n        /* \"#utility.yul\":3366:3431   */\n      tag_65\n      jump\t// in\n    tag_157:\n        /* \"#utility.yul\":3456:3485   */\n      tag_158\n        /* \"#utility.yul\":3478:3484   */\n      dup2\n        /* \"#utility.yul\":3456:3485   */\n      tag_66\n      jump\t// in\n    tag_158:\n        /* \"#utility.yul\":3451:3454   */\n      dup5\n        /* \"#utility.yul\":3447:3486   */\n      add\n        /* \"#utility.yul\":3440:3486   */\n      swap2\n      pop\n        /* \"#utility.yul\":3207:3492   */\n      pop\n        /* \"#utility.yul\":3115:3492   */\n      swap3\n      swap2\n      pop\n      pop\n      jump\t// out\n        /* \"#utility.yul\":3498:4772   */\n    tag_12:\n        /* \"#utility.yul\":3847:3851   */\n      0x00\n        /* \"#utility.yul\":3885:3888   */\n      0x0120\n        /* \"#utility.yul\":3874:3883   */\n      dup3\n        /* \"#utility.yul\":3870:3889   */\n      add\n        /* \"#utility.yul\":3862:3889   */\n      swap1\n      pop\n        /* \"#utility.yul\":3899:3970   */\n      tag_160\n        /* \"#utility.yul\":3967:3968   */\n      0x00\n        /* \"#utility.yul\":3956:3965   */\n      dup4\n        /* \"#utility.yul\":3952:3969   */\n      add\n        /* \"#utility.yul\":3943:3949   */\n      dup13\n        /* \"#utility.yul\":3899:3970   */\n      tag_59\n      jump\t// in\n    tag_160:\n        /* \"#utility.yul\":3980:4052   */\n      tag_161\n        /* \"#utility.yul\":4048:4050   */\n      0x20\n        /* \"#utility.yul\":4037:4046   */\n      dup4\n        /* \"#utility.yul\":4033:4051   */\n      add\n        /* \"#utility.yul\":4024:4030   */\n      dup12\n        /* \"#utility.yul\":3980:4052   */\n      tag_62\n      jump\t// in\n    tag_161:\n        /* \"#utility.yul\":4099:4108   */\n      dup2\n        /* \"#utility.yul\":4093:4097   */\n      dup2\n        /* \"#utility.yul\":4089:4109   */\n      sub\n        /* \"#utility.yul\":4084:4086   */\n      0x40\n        /* \"#utility.yul\":4073:4082   */\n      dup4\n        /* \"#utility.yul\":4069:4087   */\n      add\n        /* \"#utility.yul\":4062:4110   */\n      mstore\n        /* \"#utility.yul\":4127:4203   */\n      tag_162\n        /* \"#utility.yul\":4198:4202   */\n      dup2\n        /* \"#utility.yul\":4189:4195   */\n      dup11\n        /* \"#utility.yul\":4127:4203   */\n      tag_67\n      jump\t// in\n    tag_162:\n        /* \"#utility.yul\":4119:4203   */\n      swap1\n      pop\n        /* \"#utility.yul\":4213:4285   */\n      tag_163\n        /* \"#utility.yul\":4281:4283   */\n      0x60\n        /* \"#utility.yul\":4270:4279   */\n      dup4\n        /* \"#utility.yul\":4266:4284   */\n      add\n        /* \"#utility.yul\":4257:4263   */\n      dup10\n        /* \"#utility.yul\":4213:4285   */\n      tag_69\n      jump\t// in\n    tag_163:\n        /* \"#utility.yul\":4295:4368   */\n      tag_164\n        /* \"#utility.yul\":4363:4366   */\n      0x80\n        /* \"#utility.yul\":4352:4361   */\n      dup4\n        /* \"#utility.yul\":4348:4367   */\n      add\n        /* \"#utility.yul\":4339:4345   */\n      dup9\n        /* \"#utility.yul\":4295:4368   */\n      tag_69\n      jump\t// in\n    tag_164:\n        /* \"#utility.yul\":4378:4451   */\n      tag_165\n        /* \"#utility.yul\":4446:4449   */\n      0xa0\n        /* \"#utility.yul\":4435:4444   */\n      dup4\n        /* \"#utility.yul\":4431:4450   */\n      add\n        /* \"#utility.yul\":4422:4428   */\n      dup8\n        /* \"#utility.yul\":4378:4451   */\n      tag_59\n      jump\t// in\n    tag_165:\n        /* \"#utility.yul\":4461:4534   */\n      tag_166\n        /* \"#utility.yul\":4529:4532   */\n      0xc0\n        /* \"#utility.yul\":4518:4527   */\n      dup4\n        /* \"#utility.yul\":4514:4533   */\n      add\n        /* \"#utility.yul\":4505:4511   */\n      dup7\n        /* \"#utility.yul\":4461:4534   */\n      tag_59\n      jump\t// in\n    tag_166:\n        /* \"#utility.yul\":4544:4611   */\n      tag_167\n        /* \"#utility.yul\":4606:4609   */\n      0xe0\n        /* \"#utility.yul\":4595:4604   */\n      dup4\n        /* \"#utility.yul\":4591:4610   */\n      add\n        /* \"#utility.yul\":4582:4588   */\n      dup6\n        /* \"#utility.yul\":4544:4611   */\n      tag_71\n      jump\t// in\n    tag_167:\n        /* \"#utility.yul\":4659:4668   */\n      dup2\n        /* \"#utility.yul\":4653:4657   */\n      dup2\n        /* \"#utility.yul\":4649:4669   */\n      sub\n        /* \"#utility.yul\":4643:4646   */\n      0x0100\n        /* \"#utility.yul\":4632:4641   */\n      dup4\n        /* \"#utility.yul\":4628:4647   */\n      add\n        /* \"#utility.yul\":4621:4670   */\n      mstore\n        /* \"#utility.yul\":4687:4765   */\n      tag_168\n        /* \"#utility.yul\":4760:4764   */\n      dup2\n        /* \"#utility.yul\":4751:4757   */\n      dup5\n        /* \"#utility.yul\":4687:4765   */\n      tag_74\n      jump\t// in\n    tag_168:\n        /* \"#utility.yul\":4679:4765   */\n      swap1\n      pop\n        /* \"#utility.yul\":3498:4772   */\n      swap11\n      swap10\n      pop\n      pop\n      pop\n      pop\n      pop\n      pop\n      pop\n      pop\n      pop\n      pop\n      jump\t// out\n        /* \"#utility.yul\":4778:4895   */\n    tag_75:\n        /* \"#utility.yul\":4887:4888   */\n      0x00\n        /* \"#utility.yul\":4884:4885   */\n      0x00\n        /* \"#utility.yul\":4877:4889   */\n      revert\n        /* \"#utility.yul\":4901:5018   */\n    tag_76:\n        /* \"#utility.yul\":5010:5011   */\n      0x00\n        /* \"#utility.yul\":5007:5008   */\n      0x00\n        /* \"#utility.yul\":5000:5012   */\n      revert\n        /* \"#utility.yul\":5024:5204   */\n    tag_77:\n        /* \"#utility.yul\":5072:5149   */\n      0x4e487b7100000000000000000000000000000000000000000000000000000000\n        /* \"#utility.yul\":5069:5070   */\n      0x00\n        /* \"#utility.yul\":5062:5150   */\n      mstore\n        /* \"#utility.yul\":5169:5173   */\n      0x41\n        /* \"#utility.yul\":5166:5167   */\n      0x04\n        /* \"#utility.yul\":5159:5174   */\n      mstore\n        /* \"#utility.yul\":5193:5197   */\n      0x24\n        /* \"#utility.yul\":5190:5191   */\n      0x00\n        /* \"#utility.yul\":5183:5198   */\n      revert\n        /* \"#utility.yul\":5210:5491   */\n    tag_78:\n        /* \"#utility.yul\":5293:5320   */\n      tag_173\n        /* \"#utility.yul\":5315:5319   */\n      dup3\n        /* \"#utility.yul\":5293:5320   */\n      tag_66\n      jump\t// in\n    tag_173:\n        /* \"#utility.yul\":5285:5291   */\n      dup2\n        /* \"#utility.yul\":5281:5321   */\n      add\n        /* \"#utility.yul\":5423:5429   */\n      dup2\n        /* \"#utility.yul\":5411:5421   */\n      dup2\n        /* \"#utility.yul\":5408:5430   */\n      lt\n        /* \"#utility.yul\":5387:5405   */\n      0xffffffffffffffff\n        /* \"#utility.yul\":5375:5385   */\n      dup3\n        /* \"#utility.yul\":5372:5406   */\n      gt\n        /* \"#utility.yul\":5369:5431   */\n      or\n        /* \"#utility.yul\":5366:5454   */\n      iszero\n      tag_174\n      jumpi\n        /* \"#utility.yul\":5434:5452   */\n      tag_175\n      tag_77\n      jump\t// in\n    tag_175:\n        /* \"#utility.yul\":5366:5454   */\n    tag_174:\n        /* \"#utility.yul\":5474:5484   */\n      dup1\n        /* \"#utility.yul\":5470:5472   */\n      0x40\n        /* \"#utility.yul\":5463:5485   */\n      mstore\n        /* \"#utility.yul\":5253:5491   */\n      pop\n        /* \"#utility.yul\":5210:5491   */\n      pop\n      pop\n      jump\t// out\n        /* \"#utility.yul\":5497:5626   */\n    tag_79:\n        /* \"#utility.yul\":5531:5537   */\n      0x00\n        /* \"#utility.yul\":5558:5578   */\n      tag_177\n      tag_53\n      jump\t// in\n    tag_177:\n        /* \"#utility.yul\":5548:5578   */\n      swap1\n      pop\n        /* \"#utility.yul\":5587:5620   */\n      tag_178\n        /* \"#utility.yul\":5615:5619   */\n      dup3\n        /* \"#utility.yul\":5607:5613   */\n      dup3\n        /* \"#utility.yul\":5587:5620   */\n      tag_78\n      jump\t// in\n    tag_178:\n        /* \"#utility.yul\":5497:5626   */\n      swap2\n      swap1\n      pop\n      jump\t// out\n        /* \"#utility.yul\":5632:5939   */\n    tag_80:\n        /* \"#utility.yul\":5693:5697   */\n      0x00\n        /* \"#utility.yul\":5783:5801   */\n      0xffffffffffffffff\n        /* \"#utility.yul\":5775:5781   */\n      dup3\n        /* \"#utility.yul\":5772:5802   */\n      gt\n        /* \"#utility.yul\":5769:5825   */\n      iszero\n      tag_180\n      jumpi\n        /* \"#utility.yul\":5805:5823   */\n      tag_181\n      tag_77\n      jump\t// in\n    tag_181:\n        /* \"#utility.yul\":5769:5825   */\n    tag_180:\n        /* \"#utility.yul\":5843:5872   */\n      tag_182\n        /* \"#utility.yul\":5865:5871   */\n      dup3\n        /* \"#utility.yul\":5843:5872   */\n      tag_66\n      jump\t// in\n    tag_182:\n        /* \"#utility.yul\":5835:5872   */\n      swap1\n      pop\n        /* \"#utility.yul\":5927:5931   */\n      0x20\n        /* \"#utility.yul\":5921:5925   */\n      dup2\n        /* \"#utility.yul\":5917:5932   */\n      add\n        /* \"#utility.yul\":5909:5932   */\n      swap1\n      pop\n        /* \"#utility.yul\":5632:5939   */\n      swap2\n      swap1\n      pop\n      jump\t// out\n        /* \"#utility.yul\":5945:6093   */\n    tag_81:\n        /* \"#utility.yul\":6043:6049   */\n      dup3\n        /* \"#utility.yul\":6038:6041   */\n      dup2\n        /* \"#utility.yul\":6033:6036   */\n      dup4\n        /* \"#utility.yul\":6020:6050   */\n      calldatacopy\n        /* \"#utility.yul\":6084:6085   */\n      0x00\n        /* \"#utility.yul\":6075:6081   */\n      dup4\n        /* \"#utility.yul\":6070:6073   */\n      dup4\n        /* \"#utility.yul\":6066:6082   */\n      add\n        /* \"#utility.yul\":6059:6086   */\n      mstore\n        /* \"#utility.yul\":5945:6093   */\n      pop\n      pop\n      pop\n      jump\t// out\n        /* \"#utility.yul\":6099:6522   */\n    tag_82:\n        /* \"#utility.yul\":6176:6181   */\n      0x00\n        /* \"#utility.yul\":6201:6266   */\n      tag_185\n        /* \"#utility.yul\":6217:6265   */\n      tag_186\n        /* \"#utility.yul\":6258:6264   */\n      dup5\n        /* \"#utility.yul\":6217:6265   */\n      tag_80\n      jump\t// in\n    tag_186:\n        /* \"#utility.yul\":6201:6266   */\n      tag_79\n      jump\t// in\n    tag_185:\n        /* \"#utility.yul\":6192:6266   */\n      swap1\n      pop\n        /* \"#utility.yul\":6289:6295   */\n      dup3\n        /* \"#utility.yul\":6282:6287   */\n      dup2\n        /* \"#utility.yul\":6275:6296   */\n      mstore\n        /* \"#utility.yul\":6327:6331   */\n      0x20\n        /* \"#utility.yul\":6320:6325   */\n      dup2\n        /* \"#utility.yul\":6316:6332   */\n      add\n        /* \"#utility.yul\":6365:6368   */\n      dup5\n        /* \"#utility.yul\":6356:6362   */\n      dup5\n        /* \"#utility.yul\":6351:6354   */\n      dup5\n        /* \"#utility.yul\":6347:6363   */\n      add\n        /* \"#utility.yul\":6344:6369   */\n      gt\n        /* \"#utility.yul\":6341:6453   */\n      iszero\n      tag_187\n      jumpi\n        /* \"#utility.yul\":6372:6451   */\n      tag_188\n      tag_76\n      jump\t// in\n    tag_188:\n        /* \"#utility.yul\":6341:6453   */\n    tag_187:\n        /* \"#utility.yul\":6462:6516   */\n      tag_189\n        /* \"#utility.yul\":6509:6515   */\n      dup5\n        /* \"#utility.yul\":6504:6507   */\n      dup3\n        /* \"#utility.yul\":6499:6502   */\n      dup6\n        /* \"#utility.yul\":6462:6516   */\n      tag_81\n      jump\t// in\n    tag_189:\n        /* \"#utility.yul\":6182:6522   */\n      pop\n        /* \"#utility.yul\":6099:6522   */\n      swap4\n      swap3\n      pop\n      pop\n      pop\n      jump\t// out\n        /* \"#utility.yul\":6541:6879   */\n    tag_83:\n        /* \"#utility.yul\":6596:6601   */\n      0x00\n        /* \"#utility.yul\":6645:6648   */\n      dup3\n        /* \"#utility.yul\":6638:6642   */\n      0x1f\n        /* \"#utility.yul\":6630:6636   */\n      dup4\n        /* \"#utility.yul\":6626:6643   */\n      add\n        /* \"#utility.yul\":6622:6649   */\n      slt\n        /* \"#utility.yul\":6612:6734   */\n      tag_191\n      jumpi\n        /* \"#utility.yul\":6653:6732   */\n      tag_192\n      tag_75\n      jump\t// in\n    tag_192:\n        /* \"#utility.yul\":6612:6734   */\n    tag_191:\n        /* \"#utility.yul\":6770:6776   */\n      dup2\n        /* \"#utility.yul\":6757:6777   */\n      calldataload\n        /* \"#utility.yul\":6795:6873   */\n      tag_193\n        /* \"#utility.yul\":6869:6872   */\n      dup5\n        /* \"#utility.yul\":6861:6867   */\n      dup3\n        /* \"#utility.yul\":6854:6858   */\n      0x20\n        /* \"#utility.yul\":6846:6852   */\n      dup7\n        /* \"#utility.yul\":6842:6859   */\n      add\n        /* \"#utility.yul\":6795:6873   */\n      tag_82\n      jump\t// in\n    tag_193:\n        /* \"#utility.yul\":6786:6873   */\n      swap2\n      pop\n        /* \"#utility.yul\":6602:6879   */\n      pop\n        /* \"#utility.yul\":6541:6879   */\n      swap3\n      swap2\n      pop\n      pop\n      jump\t// out\n        /* \"#utility.yul\":6885:7007   */\n    tag_84:\n        /* \"#utility.yul\":6958:6982   */\n      tag_195\n        /* \"#utility.yul\":6976:6981   */\n      dup2\n        /* \"#utility.yul\":6958:6982   */\n      tag_68\n      jump\t// in\n    tag_195:\n        /* \"#utility.yul\":6951:6956   */\n      dup2\n        /* \"#utility.yul\":6948:6983   */\n      eq\n        /* \"#utility.yul\":6938:7001   */\n      tag_196\n      jumpi\n        /* \"#utility.yul\":6997:6998   */\n      0x00\n        /* \"#utility.yul\":6994:6995   */\n      0x00\n        /* \"#utility.yul\":6987:6999   */\n      revert\n        /* \"#utility.yul\":6938:7001   */\n    tag_196:\n        /* \"#utility.yul\":6885:7007   */\n      pop\n      jump\t// out\n        /* \"#utility.yul\":7013:7152   */\n    tag_85:\n        /* \"#utility.yul\":7059:7064   */\n      0x00\n        /* \"#utility.yul\":7097:7103   */\n      dup2\n        /* \"#utility.yul\":7084:7104   */\n      calldataload\n        /* \"#utility.yul\":7075:7104   */\n      swap1\n      pop\n        /* \"#utility.yul\":7113:7146   */\n      tag_198\n        /* \"#utility.yul\":7140:7145   */\n      dup2\n        /* \"#utility.yul\":7113:7146   */\n      tag_84\n      jump\t// in\n    tag_198:\n        /* \"#utility.yul\":7013:7152   */\n      swap3\n      swap2\n      pop\n      pop\n      jump\t// out\n        /* \"#utility.yul\":7158:7274   */\n    tag_86:\n        /* \"#utility.yul\":7228:7249   */\n      tag_200\n        /* \"#utility.yul\":7243:7248   */\n      dup2\n        /* \"#utility.yul\":7228:7249   */\n      tag_70\n      jump\t// in\n    tag_200:\n        /* \"#utility.yul\":7221:7226   */\n      dup2\n        /* \"#utility.yul\":7218:7250   */\n      eq\n        /* \"#utility.yul\":7208:7268   */\n      tag_201\n      jumpi\n        /* \"#utility.yul\":7264:7265   */\n      0x00\n        /* \"#utility.yul\":7261:7262   */\n      0x00\n        /* \"#utility.yul\":7254:7266   */\n      revert\n        /* \"#utility.yul\":7208:7268   */\n    tag_201:\n        /* \"#utility.yul\":7158:7274   */\n      pop\n      jump\t// out\n        /* \"#utility.yul\":7280:7413   */\n    tag_87:\n        /* \"#utility.yul\":7323:7328   */\n      0x00\n        /* \"#utility.yul\":7361:7367   */\n      dup2\n        /* \"#utility.yul\":7348:7368   */\n      calldataload\n        /* \"#utility.yul\":7339:7368   */\n      swap1\n      pop\n        /* \"#utility.yul\":7377:7407   */\n      tag_203\n        /* \"#utility.yul\":7401:7406   */\n      dup2\n        /* \"#utility.yul\":7377:7407   */\n      tag_86\n      jump\t// in\n    tag_203:\n        /* \"#utility.yul\":7280:7413   */\n      swap3\n      swap2\n      pop\n      pop\n      jump\t// out\n        /* \"#utility.yul\":7419:7727   */\n    tag_88:\n        /* \"#utility.yul\":7481:7485   */\n      0x00\n        /* \"#utility.yul\":7571:7589   */\n      0xffffffffffffffff\n        /* \"#utility.yul\":7563:7569   */\n      dup3\n        /* \"#utility.yul\":7560:7590   */\n      gt\n        /* \"#utility.yul\":7557:7613   */\n      iszero\n      tag_205\n      jumpi\n        /* \"#utility.yul\":7593:7611   */\n      tag_206\n      tag_77\n      jump\t// in\n    tag_206:\n        /* \"#utility.yul\":7557:7613   */\n    tag_205:\n        /* \"#utility.yul\":7631:7660   */\n      tag_207\n        /* \"#utility.yul\":7653:7659   */\n      dup3\n        /* \"#utility.yul\":7631:7660   */\n      tag_66\n      jump\t// in\n    tag_207:\n        /* \"#utility.yul\":7623:7660   */\n      swap1\n      pop\n        /* \"#utility.yul\":7715:7719   */\n      0x20\n        /* \"#utility.yul\":7709:7713   */\n      dup2\n        /* \"#utility.yul\":7705:7720   */\n      add\n        /* \"#utility.yul\":7697:7720   */\n      swap1\n      pop\n        /* \"#utility.yul\":7419:7727   */\n      swap2\n      swap1\n      pop\n      jump\t// out\n        /* \"#utility.yul\":7733:8158   */\n    tag_89:\n        /* \"#utility.yul\":7811:7816   */\n      0x00\n        /* \"#utility.yul\":7836:7902   */\n      tag_209\n        /* \"#utility.yul\":7852:7901   */\n      tag_210\n        /* \"#utility.yul\":7894:7900   */\n      dup5\n        /* \"#utility.yul\":7852:7901   */\n      tag_88\n      jump\t// in\n    tag_210:\n        /* \"#utility.yul\":7836:7902   */\n      tag_79\n      jump\t// in\n    tag_209:\n        /* \"#utility.yul\":7827:7902   */\n      swap1\n      pop\n        /* \"#utility.yul\":7925:7931   */\n      dup3\n        /* \"#utility.yul\":7918:7923   */\n      dup2\n        /* \"#utility.yul\":7911:7932   */\n      mstore\n        /* \"#utility.yul\":7963:7967   */\n      0x20\n        /* \"#utility.yul\":7956:7961   */\n      dup2\n        /* \"#utility.yul\":7952:7968   */\n      add\n        /* \"#utility.yul\":8001:8004   */\n      dup5\n        /* \"#utility.yul\":7992:7998   */\n      dup5\n        /* \"#utility.yul\":7987:7990   */\n      dup5\n        /* \"#utility.yul\":7983:7999   */\n      add\n        /* \"#utility.yul\":7980:8005   */\n      gt\n        /* \"#utility.yul\":7977:8089   */\n      iszero\n      tag_211\n      jumpi\n        /* \"#utility.yul\":8008:8087   */\n      tag_212\n      tag_76\n      jump\t// in\n    tag_212:\n        /* \"#utility.yul\":7977:8089   */\n    tag_211:\n        /* \"#utility.yul\":8098:8152   */\n      tag_213\n        /* \"#utility.yul\":8145:8151   */\n      dup5\n        /* \"#utility.yul\":8140:8143   */\n      dup3\n        /* \"#utility.yul\":8135:8138   */\n      dup6\n        /* \"#utility.yul\":8098:8152   */\n      tag_81\n      jump\t// in\n    tag_213:\n        /* \"#utility.yul\":7817:8158   */\n      pop\n        /* \"#utility.yul\":7733:8158   */\n      swap4\n      swap3\n      pop\n      pop\n      pop\n      jump\t// out\n        /* \"#utility.yul\":8178:8518   */\n    tag_90:\n        /* \"#utility.yul\":8234:8239   */\n      0x00\n        /* \"#utility.yul\":8283:8286   */\n      dup3\n        /* \"#utility.yul\":8276:8280   */\n      0x1f\n        /* \"#utility.yul\":8268:8274   */\n      dup4\n        /* \"#utility.yul\":8264:8281   */\n      add\n        /* \"#utility.yul\":8260:8287   */\n      slt\n        /* \"#utility.yul\":8250:8372   */\n      tag_215\n      jumpi\n        /* \"#utility.yul\":8291:8370   */\n      tag_216\n      tag_75\n      jump\t// in\n    tag_216:\n        /* \"#utility.yul\":8250:8372   */\n    tag_215:\n        /* \"#utility.yul\":8408:8414   */\n      dup2\n        /* \"#utility.yul\":8395:8415   */\n      calldataload\n        /* \"#utility.yul\":8433:8512   */\n      tag_217\n        /* \"#utility.yul\":8508:8511   */\n      dup5\n        /* \"#utility.yul\":8500:8506   */\n      dup3\n        /* \"#utility.yul\":8493:8497   */\n      0x20\n        /* \"#utility.yul\":8485:8491   */\n      dup7\n        /* \"#utility.yul\":8481:8498   */\n      add\n        /* \"#utility.yul\":8433:8512   */\n      tag_89\n      jump\t// in\n    tag_217:\n        /* \"#utility.yul\":8424:8512   */\n      swap2\n      pop\n        /* \"#utility.yul\":8240:8518   */\n      pop\n        /* \"#utility.yul\":8178:8518   */\n      swap3\n      swap2\n      pop\n      pop\n      jump\t// out\n        /* \"#utility.yul\":8524:10079   */\n    tag_15:\n        /* \"#utility.yul\":8653:8659   */\n      0x00\n        /* \"#utility.yul\":8661:8667   */\n      0x00\n        /* \"#utility.yul\":8669:8675   */\n      0x00\n        /* \"#utility.yul\":8677:8683   */\n      0x00\n        /* \"#utility.yul\":8685:8691   */\n      0x00\n        /* \"#utility.yul\":8693:8699   */\n      0x00\n        /* \"#utility.yul\":8701:8707   */\n      0x00\n        /* \"#utility.yul\":8750:8753   */\n      0xe0\n        /* \"#utility.yul\":8738:8747   */\n      dup9\n        /* \"#utility.yul\":8729:8736   */\n      dup11\n        /* \"#utility.yul\":8725:8748   */\n      sub\n        /* \"#utility.yul\":8721:8754   */\n      slt\n        /* \"#utility.yul\":8718:8838   */\n      iszero\n      tag_219\n      jumpi\n        /* \"#utility.yul\":8757:8836   */\n      tag_220\n      tag_54\n      jump\t// in\n    tag_220:\n        /* \"#utility.yul\":8718:8838   */\n    tag_219:\n        /* \"#utility.yul\":8905:8906   */\n      0x00\n        /* \"#utility.yul\":8894:8903   */\n      dup9\n        /* \"#utility.yul\":8890:8907   */\n      add\n        /* \"#utility.yul\":8877:8908   */\n      calldataload\n        /* \"#utility.yul\":8935:8953   */\n      0xffffffffffffffff\n        /* \"#utility.yul\":8927:8933   */\n      dup2\n        /* \"#utility.yul\":8924:8954   */\n      gt\n        /* \"#utility.yul\":8921:9038   */\n      iszero\n      tag_221\n      jumpi\n        /* \"#utility.yul\":8957:9036   */\n      tag_222\n      tag_55\n      jump\t// in\n    tag_222:\n        /* \"#utility.yul\":8921:9038   */\n    tag_221:\n        /* \"#utility.yul\":9062:9124   */\n      tag_223\n        /* \"#utility.yul\":9116:9123   */\n      dup11\n        /* \"#utility.yul\":9107:9113   */\n      dup3\n        /* \"#utility.yul\":9096:9105   */\n      dup12\n        /* \"#utility.yul\":9092:9114   */\n      add\n        /* \"#utility.yul\":9062:9124   */\n      tag_83\n      jump\t// in\n    tag_223:\n        /* \"#utility.yul\":9052:9124   */\n      swap8\n      pop\n        /* \"#utility.yul\":8848:9134   */\n      pop\n        /* \"#utility.yul\":9173:9175   */\n      0x20\n        /* \"#utility.yul\":9199:9252   */\n      tag_224\n        /* \"#utility.yul\":9244:9251   */\n      dup11\n        /* \"#utility.yul\":9235:9241   */\n      dup3\n        /* \"#utility.yul\":9224:9233   */\n      dup12\n        /* \"#utility.yul\":9220:9242   */\n      add\n        /* \"#utility.yul\":9199:9252   */\n      tag_85\n      jump\t// in\n    tag_224:\n        /* \"#utility.yul\":9189:9252   */\n      swap7\n      pop\n        /* \"#utility.yul\":9144:9262   */\n      pop\n        /* \"#utility.yul\":9301:9303   */\n      0x40\n        /* \"#utility.yul\":9327:9380   */\n      tag_225\n        /* \"#utility.yul\":9372:9379   */\n      dup11\n        /* \"#utility.yul\":9363:9369   */\n      dup3\n        /* \"#utility.yul\":9352:9361   */\n      dup12\n        /* \"#utility.yul\":9348:9370   */\n      add\n        /* \"#utility.yul\":9327:9380   */\n      tag_85\n      jump\t// in\n    tag_225:\n        /* \"#utility.yul\":9317:9380   */\n      swap6\n      pop\n        /* \"#utility.yul\":9272:9390   */\n      pop\n        /* \"#utility.yul\":9429:9431   */\n      0x60\n        /* \"#utility.yul\":9455:9508   */\n      tag_226\n        /* \"#utility.yul\":9500:9507   */\n      dup11\n        /* \"#utility.yul\":9491:9497   */\n      dup3\n        /* \"#utility.yul\":9480:9489   */\n      dup12\n        /* \"#utility.yul\":9476:9498   */\n      add\n        /* \"#utility.yul\":9455:9508   */\n      tag_58\n      jump\t// in\n    tag_226:\n        /* \"#utility.yul\":9445:9508   */\n      swap5\n      pop\n        /* \"#utility.yul\":9400:9518   */\n      pop\n        /* \"#utility.yul\":9557:9560   */\n      0x80\n        /* \"#utility.yul\":9584:9637   */\n      tag_227\n        /* \"#utility.yul\":9629:9636   */\n      dup11\n        /* \"#utility.yul\":9620:9626   */\n      dup3\n        /* \"#utility.yul\":9609:9618   */\n      dup12\n        /* \"#utility.yul\":9605:9627   */\n      add\n        /* \"#utility.yul\":9584:9637   */\n      tag_58\n      jump\t// in\n    tag_227:\n        /* \"#utility.yul\":9574:9637   */\n      swap4\n      pop\n        /* \"#utility.yul\":9528:9647   */\n      pop\n        /* \"#utility.yul\":9686:9689   */\n      0xa0\n        /* \"#utility.yul\":9713:9763   */\n      tag_228\n        /* \"#utility.yul\":9755:9762   */\n      dup11\n        /* \"#utility.yul\":9746:9752   */\n      dup3\n        /* \"#utility.yul\":9735:9744   */\n      dup12\n        /* \"#utility.yul\":9731:9753   */\n      add\n        /* \"#utility.yul\":9713:9763   */\n      tag_87\n      jump\t// in\n    tag_228:\n        /* \"#utility.yul\":9703:9763   */\n      swap3\n      pop\n        /* \"#utility.yul\":9657:9773   */\n      pop\n        /* \"#utility.yul\":9840:9843   */\n      0xc0\n        /* \"#utility.yul\":9829:9838   */\n      dup9\n        /* \"#utility.yul\":9825:9844   */\n      add\n        /* \"#utility.yul\":9812:9845   */\n      calldataload\n        /* \"#utility.yul\":9872:9890   */\n      0xffffffffffffffff\n        /* \"#utility.yul\":9864:9870   */\n      dup2\n        /* \"#utility.yul\":9861:9891   */\n      gt\n        /* \"#utility.yul\":9858:9975   */\n      iszero\n      tag_229\n      jumpi\n        /* \"#utility.yul\":9894:9973   */\n      tag_230\n      tag_55\n      jump\t// in\n    tag_230:\n        /* \"#utility.yul\":9858:9975   */\n    tag_229:\n        /* \"#utility.yul\":9999:10062   */\n      tag_231\n        /* \"#utility.yul\":10054:10061   */\n      dup11\n        /* \"#utility.yul\":10045:10051   */\n      dup3\n        /* \"#utility.yul\":10034:10043   */\n      dup12\n        /* \"#utility.yul\":10030:10052   */\n      add\n        /* \"#utility.yul\":9999:10062   */\n      tag_90\n      jump\t// in\n    tag_231:\n        /* \"#utility.yul\":9989:10062   */\n      swap2\n      pop\n        /* \"#utility.yul\":9783:10072   */\n      pop\n        /* \"#utility.yul\":8524:10079   */\n      swap3\n      swap6\n      swap9\n      swap2\n      swap5\n      swap8\n      pop\n      swap3\n      swap6\n      pop\n      jump\t// out\n        /* \"#utility.yul\":10085:10207   */\n    tag_91:\n        /* \"#utility.yul\":10158:10182   */\n      tag_233\n        /* \"#utility.yul\":10176:10181   */\n      dup2\n        /* \"#utility.yul\":10158:10182   */\n      tag_61\n      jump\t// in\n    tag_233:\n        /* \"#utility.yul\":10151:10156   */\n      dup2\n        /* \"#utility.yul\":10148:10183   */\n      eq\n        /* \"#utility.yul\":10138:10201   */\n      tag_234\n      jumpi\n        /* \"#utility.yul\":10197:10198   */\n      0x00\n        /* \"#utility.yul\":10194:10195   */\n      0x00\n        /* \"#utility.yul\":10187:10199   */\n      revert\n        /* \"#utility.yul\":10138:10201   */\n    tag_234:\n        /* \"#utility.yul\":10085:10207   */\n      pop\n      jump\t// out\n        /* \"#utility.yul\":10213:10352   */\n    tag_92:\n        /* \"#utility.yul\":10259:10264   */\n      0x00\n        /* \"#utility.yul\":10297:10303   */\n      dup2\n        /* \"#utility.yul\":10284:10304   */\n      calldataload\n        /* \"#utility.yul\":10275:10304   */\n      swap1\n      pop\n        /* \"#utility.yul\":10313:10346   */\n      tag_236\n        /* \"#utility.yul\":10340:10345   */\n      dup2\n        /* \"#utility.yul\":10313:10346   */\n      tag_91\n      jump\t// in\n    tag_236:\n        /* \"#utility.yul\":10213:10352   */\n      swap3\n      swap2\n      pop\n      pop\n      jump\t// out\n        /* \"#utility.yul\":10358:10687   */\n    tag_19:\n        /* \"#utility.yul\":10417:10423   */\n      0x00\n        /* \"#utility.yul\":10466:10468   */\n      0x20\n        /* \"#utility.yul\":10454:10463   */\n      dup3\n        /* \"#utility.yul\":10445:10452   */\n      dup5\n        /* \"#utility.yul\":10441:10464   */\n      sub\n        /* \"#utility.yul\":10437:10469   */\n      slt\n        /* \"#utility.yul\":10434:10553   */\n      iszero\n      tag_238\n      jumpi\n        /* \"#utility.yul\":10472:10551   */\n      tag_239\n      tag_54\n      jump\t// in\n    tag_239:\n        /* \"#utility.yul\":10434:10553   */\n    tag_238:\n        /* \"#utility.yul\":10592:10593   */\n      0x00\n        /* \"#utility.yul\":10617:10670   */\n      tag_240\n        /* \"#utility.yul\":10662:10669   */\n      dup5\n        /* \"#utility.yul\":10653:10659   */\n      dup3\n        /* \"#utility.yul\":10642:10651   */\n      dup6\n        /* \"#utility.yul\":10638:10660   */\n      add\n        /* \"#utility.yul\":10617:10670   */\n      tag_92\n      jump\t// in\n    tag_240:\n        /* \"#utility.yul\":10607:10670   */\n      swap2\n      pop\n        /* \"#utility.yul\":10563:10680   */\n      pop\n        /* \"#utility.yul\":10358:10687   */\n      swap3\n      swap2\n      pop\n      pop\n      jump\t// out\n        /* \"#utility.yul\":10693:10915   */\n    tag_22:\n        /* \"#utility.yul\":10786:10790   */\n      0x00\n        /* \"#utility.yul\":10824:10826   */\n      0x20\n        /* \"#utility.yul\":10813:10822   */\n      dup3\n        /* \"#utility.yul\":10809:10827   */\n      add\n        /* \"#utility.yul\":10801:10827   */\n      swap1\n      pop\n        /* \"#utility.yul\":10837:10908   */\n      tag_242\n        /* \"#utility.yul\":10905:10906   */\n      0x00\n        /* \"#utility.yul\":10894:10903   */\n      dup4\n        /* \"#utility.yul\":10890:10907   */\n      add\n        /* \"#utility.yul\":10881:10887   */\n      dup5\n        /* \"#utility.yul\":10837:10908   */\n      tag_59\n      jump\t// in\n    tag_242:\n        /* \"#utility.yul\":10693:10915   */\n      swap3\n      swap2\n      pop\n      pop\n      jump\t// out\n        /* \"#utility.yul\":10921:11101   */\n    tag_93:\n        /* \"#utility.yul\":10969:11046   */\n      0x4e487b7100000000000000000000000000000000000000000000000000000000\n        /* \"#utility.yul\":10966:10967   */\n      0x00\n        /* \"#utility.yul\":10959:11047   */\n      mstore\n        /* \"#utility.yul\":11066:11070   */\n      0x22\n        /* \"#utility.yul\":11063:11064   */\n      0x04\n        /* \"#utility.yul\":11056:11071   */\n      mstore\n        /* \"#utility.yul\":11090:11094   */\n      0x24\n        /* \"#utility.yul\":11087:11088   */\n      0x00\n        /* \"#utility.yul\":11080:11095   */\n      revert\n        /* \"#utility.yul\":11107:11427   */\n    tag_28:\n        /* \"#utility.yul\":11151:11157   */\n      0x00\n        /* \"#utility.yul\":11188:11189   */\n      0x02\n        /* \"#utility.yul\":11182:11186   */\n      dup3\n        /* \"#utility.yul\":11178:11190   */\n      div\n        /* \"#utility.yul\":11168:11190   */\n      swap1\n      pop\n        /* \"#utility.yul\":11235:11236   */\n      0x01\n        /* \"#utility.yul\":11229:11233   */\n      dup3\n        /* \"#utility.yul\":11225:11237   */\n      and\n        /* \"#utility.yul\":11256:11274   */\n      dup1\n        /* \"#utility.yul\":11246:11327   */\n      tag_245\n      jumpi\n        /* \"#utility.yul\":11312:11316   */\n      0x7f\n        /* \"#utility.yul\":11304:11310   */\n      dup3\n        /* \"#utility.yul\":11300:11317   */\n      and\n        /* \"#utility.yul\":11290:11317   */\n      swap2\n      pop\n        /* \"#utility.yul\":11246:11327   */\n    tag_245:\n        /* \"#utility.yul\":11374:11376   */\n      0x20\n        /* \"#utility.yul\":11366:11372   */\n      dup3\n        /* \"#utility.yul\":11363:11377   */\n      lt\n        /* \"#utility.yul\":11343:11361   */\n      dup2\n        /* \"#utility.yul\":11340:11378   */\n      sub\n        /* \"#utility.yul\":11337:11421   */\n      tag_246\n      jumpi\n        /* \"#utility.yul\":11393:11411   */\n      tag_247\n      tag_93\n      jump\t// in\n    tag_247:\n        /* \"#utility.yul\":11337:11421   */\n    tag_246:\n        /* \"#utility.yul\":11158:11427   */\n      pop\n        /* \"#utility.yul\":11107:11427   */\n      swap2\n      swap1\n      pop\n      jump\t// out\n        /* \"#utility.yul\":11433:11594   */\n    tag_94:\n        /* \"#utility.yul\":11573:11586   */\n      0x7374616c65206e6f6e6365000000000000000000000000000000000000000000\n        /* \"#utility.yul\":11569:11570   */\n      0x00\n        /* \"#utility.yul\":11561:11567   */\n      dup3\n        /* \"#utility.yul\":11557:11571   */\n      add\n        /* \"#utility.yul\":11550:11587   */\n      mstore\n        /* \"#utility.yul\":11433:11594   */\n      pop\n      jump\t// out\n        /* \"#utility.yul\":11600:11966   */\n    tag_95:\n        /* \"#utility.yul\":11742:11745   */\n      0x00\n        /* \"#utility.yul\":11763:11830   */\n      tag_250\n        /* \"#utility.yul\":11827:11829   */\n      0x0b\n        /* \"#utility.yul\":11822:11825   */\n      dup4\n        /* \"#utility.yul\":11763:11830   */\n      tag_73\n      jump\t// in\n    tag_250:\n        /* \"#utility.yul\":11756:11830   */\n      swap2\n      pop\n        /* \"#utility.yul\":11839:11932   */\n      tag_251\n        /* \"#utility.yul\":11928:11931   */\n      dup3\n        /* \"#utility.yul\":11839:11932   */\n      tag_94\n      jump\t// in\n    tag_251:\n        /* \"#utility.yul\":11957:11959   */\n      0x20\n        /* \"#utility.yul\":11952:11955   */\n      dup3\n        /* \"#utility.yul\":11948:11960   */\n      add\n        /* \"#utility.yul\":11941:11960   */\n      swap1\n      pop\n        /* \"#utility.yul\":11600:11966   */\n      swap2\n      swap1\n      pop\n      jump\t// out\n        /* \"#utility.yul\":11972:12391   */\n    tag_41:\n        /* \"#utility.yul\":12138:12142   */\n      0x00\n        /* \"#utility.yul\":12176:12178   */\n      0x20\n        /* \"#utility.yul\":12165:12174   */\n      dup3\n        /* \"#utility.yul\":12161:12179   */\n      add\n        /* \"#utility.yul\":12153:12179   */\n      swap1\n      pop\n        /* \"#utility.yul\":12225:12234   */\n      dup2\n        /* \"#utility.yul\":12219:12223   */\n      dup2\n        /* \"#utility.yul\":12215:12235   */\n      sub\n        /* \"#utility.yul\":12211:12212   */\n      0x00\n        /* \"#utility.yul\":12200:12209   */\n      dup4\n        /* \"#utility.yul\":12196:12213   */\n      add\n        /* \"#utility.yul\":12189:12236   */\n      mstore\n        /* \"#utility.yul\":12253:12384   */\n      tag_253\n        /* \"#utility.yul\":12379:12383   */\n      dup2\n        /* \"#utility.yul\":12253:12384   */\n      tag_95\n      jump\t// in\n    tag_253:\n        /* \"#utility.yul\":12245:12384   */\n      swap1\n      pop\n        /* \"#utility.yul\":11972:12391   */\n      swap2\n      swap1\n      pop\n      jump\t// out\n        /* \"#utility.yul\":12397:12568   */\n    tag_96:\n        /* \"#utility.yul\":12537:12560   */\n      0x7061796c6f61642068617368206d69736d617463680000000000000000000000\n        /* \"#utility.yul\":12533:12534   */\n      0x00\n        /* \"#utility.yul\":12525:12531   */\n      dup3\n        /* \"#utility.yul\":12521:12535   */\n      add\n        /* \"#utility.yul\":12514:12561   */\n      mstore\n        /* \"#utility.yul\":12397:12568   */\n      pop\n      jump\t// out\n        /* \"#utility.yul\":12574:12940   */\n    tag_97:\n        /* \"#utility.yul\":12716:12719   */\n      0x00\n        /* \"#utility.yul\":12737:12804   */\n      tag_256\n        /* \"#utility.yul\":12801:12803   */\n      0x15\n        /* \"#utility.yul\":12796:12799   */\n      dup4\n        /* \"#utility.yul\":12737:12804   */\n      tag_73\n      jump\t// in\n    tag_256:\n        /* \"#utility.yul\":12730:12804   */\n      swap2\n      pop\n        /* \"#utility.yul\":12813:12906   */\n      tag_257\n        /* \"#utility.yul\":12902:12905   */\n      dup3\n        /* \"#utility.yul\":12813:12906   */\n      tag_96\n      jump\t// in\n    tag_257:\n        /* \"#utility.yul\":12931:12933   */\n      0x20\n        /* \"#utility.yul\":12926:12929   */\n      dup3\n        /* \"#utility.yul\":12922:12934   */\n      add\n        /* \"#utility.yul\":12915:12934   */\n      swap1\n      pop\n        /* \"#utility.yul\":12574:12940   */\n      swap2\n      swap1\n      pop\n      jump\t// out\n        /* \"#utility.yul\":12946:13365   */\n    tag_44:\n        /* \"#utility.yul\":13112:13116   */\n      0x00\n        /* \"#utility.yul\":13150:13152   */\n      0x20\n        /* \"#utility.yul\":13139:13148   */\n      dup3\n        /* \"#utility.yul\":13135:13153   */\n      add\n        /* \"#utility.yul\":13127:13153   */\n      swap1\n      pop\n        /* \"#utility.yul\":13199:13208   */\n      dup2\n        /* \"#utility.yul\":13193:13197   */\n      dup2\n        /* \"#utility.yul\":13189:13209   */\n      sub\n        /* \"#utility.yul\":13185:13186   */\n      0x00\n        /* \"#utility.yul\":13174:13183   */\n      dup4\n        /* \"#utility.yul\":13170:13187   */\n      add\n        /* \"#utility.yul\":13163:13210   */\n      mstore\n        /* \"#utility.yul\":13227:13358   */\n      tag_259\n        /* \"#utility.yul\":13353:13357   */\n      dup2\n        /* \"#utility.yul\":13227:13358   */\n      tag_97\n      jump\t// in\n    tag_259:\n        /* \"#utility.yul\":13219:13358   */\n      swap1\n      pop\n        /* \"#utility.yul\":12946:13365   */\n      swap2\n      swap1\n      pop\n      jump\t// out\n        /* \"#utility.yul\":13371:13551   */\n    tag_98:\n        /* \"#utility.yul\":13419:13496   */\n      0x4e487b7100000000000000000000000000000000000000000000000000000000\n        /* \"#utility.yul\":13416:13417   */\n      0x00\n        /* \"#utility.yul\":13409:13497   */\n      mstore\n        /* \"#utility.yul\":13516:13520   */\n      0x11\n        /* \"#utility.yul\":13513:13514   */\n      0x04\n        /* \"#utility.yul\":13506:13521   */\n      mstore\n        /* \"#utility.yul\":13540:13544   */\n      0x24\n        /* \"#utility.yul\":13537:13538   */\n      0x00\n        /* \"#utility.yul\":13530:13545   */\n      revert\n        /* \"#utility.yul\":13557:13748   */\n    tag_46:\n        /* \"#utility.yul\":13597:13600   */\n      0x00\n        /* \"#utility.yul\":13616:13636   */\n      tag_262\n        /* \"#utility.yul\":13634:13635   */\n      dup3\n        /* \"#utility.yul\":13616:13636   */\n      tag_56\n      jump\t// in\n    tag_262:\n        /* \"#utility.yul\":13611:13636   */\n      swap2\n      pop\n        /* \"#utility.yul\":13650:13670   */\n      tag_263\n        /* \"#utility.yul\":13668:13669   */\n      dup4\n        /* \"#utility.yul\":13650:13670   */\n      tag_56\n      jump\t// in\n    tag_263:\n        /* \"#utility.yul\":13645:13670   */\n      swap3\n      pop\n        /* \"#utility.yul\":13693:13694   */\n      dup3\n        /* \"#utility.yul\":13690:13691   */\n      dup3\n        /* \"#utility.yul\":13686:13695   */\n      add\n        /* \"#utility.yul\":13679:13695   */\n      swap1\n      pop\n        /* \"#utility.yul\":13714:13717   */\n      dup1\n        /* \"#utility.yul\":13711:13712   */\n      dup3\n        /* \"#utility.yul\":13708:13718   */\n      gt\n        /* \"#utility.yul\":13705:13741   */\n      iszero\n      tag_264\n      jumpi\n        /* \"#utility.yul\":13721:13739   */\n      tag_265\n      tag_98\n      jump\t// in\n    tag_265:\n        /* \"#utility.yul\":13705:13741   */\n    tag_264:\n        /* \"#utility.yul\":13557:13748   */\n      swap3\n      swap2\n      pop\n      pop\n      jump\t// out\n        /* \"#utility.yul\":13754:13894   */\n    tag_99:\n        /* \"#utility.yul\":13802:13806   */\n      0x00\n        /* \"#utility.yul\":13825:13828   */\n      dup2\n        /* \"#utility.yul\":13817:13828   */\n      swap1\n      pop\n        /* \"#utility.yul\":13848:13851   */\n      dup2\n        /* \"#utility.yul\":13845:13846   */\n      0x00\n        /* \"#utility.yul\":13838:13852   */\n      mstore\n        /* \"#utility.yul\":13882:13886   */\n      0x20\n        /* \"#utility.yul\":13879:13880   */\n      0x00\n        /* \"#utility.yul\":13869:13887   */\n      keccak256\n        /* \"#utility.yul\":13861:13887   */\n      swap1\n      pop\n        /* \"#utility.yul\":13754:13894   */\n      swap2\n      swap1\n      pop\n      jump\t// out\n        /* \"#utility.yul\":13900:13993   */\n    tag_100:\n        /* \"#utility.yul\":13937:13943   */\n      0x00\n        /* \"#utility.yul\":13984:13986   */\n      0x20\n        /* \"#utility.yul\":13979:13981   */\n      0x1f\n        /* \"#utility.yul\":13972:13977   */\n      dup4\n        /* \"#utility.yul\":13968:13982   */\n      add\n        /* \"#utility.yul\":13964:13987   */\n      div\n        /* \"#utility.yul\":13954:13987   */\n      swap1\n      pop\n        /* \"#utility.yul\":13900:13993   */\n      swap2\n      swap1\n      pop\n      jump\t// out\n        /* \"#utility.yul\":13999:14106   */\n    tag_101:\n        /* \"#utility.yul\":14043:14051   */\n      0x00\n        /* \"#utility.yul\":14093:14098   */\n      dup3\n        /* \"#utility.yul\":14087:14091   */\n      dup3\n        /* \"#utility.yul\":14083:14099   */\n      shl\n        /* \"#utility.yul\":14062:14099   */\n      swap1\n      pop\n        /* \"#utility.yul\":13999:14106   */\n      swap3\n      swap2\n      pop\n      pop\n      jump\t// out\n        /* \"#utility.yul\":14112:14505   */\n    tag_102:\n        /* \"#utility.yul\":14181:14187   */\n      0x00\n        /* \"#utility.yul\":14231:14232   */\n      0x08\n        /* \"#utility.yul\":14219:14229   */\n      dup4\n        /* \"#utility.yul\":14215:14233   */\n      mul\n        /* \"#utility.yul\":14254:14351   */\n      tag_270\n        /* \"#utility.yul\":14284:14350   */\n      0xffffffffffffffffffffffffffffffffffffffffffffffffffffffffffffffff\n        /* \"#utility.yul\":14273:14282   */\n      dup3\n        /* \"#utility.yul\":14254:14351   */\n      tag_101\n      jump\t// in\n    tag_270:\n        /* \"#utility.yul\":14372:14411   */\n      tag_271\n        /* \"#utility.yul\":14402:14410   */\n      dup7\n        /* \"#utility.yul\":14391:14400   */\n      dup4\n        /* \"#utility.yul\":14372:14411   */\n      tag_101\n      jump\t// in\n    tag_271:\n        /* \"#utility.yul\":14360:14411   */\n      swap6\n      pop\n        /* \"#utility.yul\":14444:14448   */\n      dup1\n        /* \"#utility.yul\":14440:14449   */\n      not\n        /* \"#utility.yul\":14433:14438   */\n      dup5\n        /* \"#utility.yul\":14429:14450   */\n      and\n        /* \"#utility.yul\":14420:14450   */\n      swap4\n      pop\n        /* \"#utility.yul\":14493:14497   */\n      dup1\n        /* \"#utility.yul\":14483:14491   */\n      dup7\n        /* \"#utility.yul\":14479:14498   */\n      and\n        /* \"#utility.yul\":14472:14477   */\n      dup5\n        /* \"#utility.yul\":14469:14499   */\n      or\n        /* \"#utility.yul\":14459:14499   */\n      swap3\n      pop\n        /* \"#utility.yul\":14188:14505   */\n      pop\n      pop\n        /* \"#utility.yul\":14112:14505   */\n      swap4\n      swap3\n      pop\n      pop\n      pop\n      jump\t// out\n        /* \"#utility.yul\":14511:14571   */\n    tag_103:\n        /* \"#utility.yul\":14539:14542   */\n      0x00\n        /* \"#utility.yul\":14560:14565   */\n      dup2\n        /* \"#utility.yul\":14553:14565   */\n      swap1\n      pop\n        /* \"#utility.yul\":14511:14571   */\n      swap2\n      swap1\n      pop\n      jump\t// out\n        /* \"#utility.yul\":14577:14719   */\n    tag_104:\n        /* \"#utility.yul\":14627:14636   */\n      0x00\n        /* \"#utility.yul\":14660:14713   */\n      tag_274\n        /* \"#utility.yul\":14678:14712   */\n      tag_275\n        /* \"#utility.yul\":14687:14711   */\n      tag_276\n        /* \"#utility.yul\":14705:14710   */\n      dup5\n        /* \"#utility.yul\":14687:14711   */\n      tag_56\n      jump\t// in\n    tag_276:\n        /* \"#utility.yul\":14678:14712   */\n      tag_103\n      jump\t// in\n    tag_275:\n        /* \"#utility.yul\":14660:14713   */\n      tag_56\n      jump\t// in\n    tag_274:\n        /* \"#utility.yul\":14647:14713   */\n      swap1\n      pop\n        /* \"#utility.yul\":14577:14719   */\n      swap2\n      swap1\n      pop\n      jump\t// out\n        /* \"#utility.yul\":14725:14800   */\n    tag_105:\n        /* \"#utility.yul\":14768:14771   */\n      0x00\n        /* \"#utility.yul\":14789:14794   */\n      dup2\n        /* \"#utility.yul\":14782:14794   */\n      swap1\n      pop\n        /* \"#utility.yul\":14725:14800   */\n      swap2\n      swap1\n      pop\n      jump\t// out\n        /* \"#utility.yul\":14806:15075   */\n    tag_106:\n        /* \"#utility.yul\":14916:14955   */\n      tag_279\n        /* \"#utility.yul\":14947:14954   */\n      dup4\n        /* \"#utility.yul\":14916:14955   */\n      tag_104\n      jump\t// in\n    tag_279:\n        /* \"#utility.yul\":14977:15068   */\n      tag_280\n        /* \"#utility.yul\":15026:15067   */\n      tag_281\n        /* \"#utility.yul\":15050:15066   */\n      dup3\n        /* \"#utility.yul\":15026:15067   */\n      tag_105\n      jump\t// in\n    tag_281:\n        /* \"#utility.yul\":15018:15024   */\n      dup5\n        /* \"#utility.yul\":15011:15015   */\n      dup5\n        /* \"#utility.yul\":15005:15016   */\n      sload\n        /* \"#utility.yul\":14977:15068   */\n      tag_102\n      jump\t// in\n    tag_280:\n        /* \"#utility.yul\":14971:14975   */\n      dup3\n        /* \"#utility.yul\":14964:15069   */\n      sstore\n        /* \"#utility.yul\":14882:15075   */\n      pop\n        /* \"#utility.yul\":14806:15075   */\n      pop\n      pop\n      pop\n      jump\t// out\n        /* \"#utility.yul\":15081:15154   */\n    tag_107:\n        /* \"#utility.yul\":15126:15129   */\n      0x00\n        /* \"#utility.yul\":15147:15148   */\n      0x00\n        /* \"#utility.yul\":15140:15148   */\n      swap1\n      pop\n        /* \"#utility.yul\":15081:15154   */\n      swap1\n      jump\t// out\n        /* \"#utility.yul\":15160:15349   */\n    tag_108:\n        /* \"#utility.yul\":15237:15269   */\n      tag_284\n      tag_107\n      jump\t// in\n    tag_284:\n        /* \"#utility.yul\":15278:15343   */\n      tag_285\n        /* \"#utility.yul\":15336:15342   */\n      dup2\n        /* \"#utility.yul\":15328:15334   */\n      dup5\n        /* \"#utility.yul\":15322:15326   */\n      dup5\n        /* \"#utility.yul\":15278:15343   */\n      tag_106\n      jump\t// in\n    tag_285:\n        /* \"#utility.yul\":15213:15349   */\n      pop\n        /* \"#utility.yul\":15160:15349   */\n      pop\n      pop\n      jump\t// out\n        /* \"#utility.yul\":15355:15541   */\n    tag_109:\n        /* \"#utility.yul\":15415:15535   */\n    tag_287:\n        /* \"#utility.yul\":15432:15435   */\n      dup2\n        /* \"#utility.yul\":15425:15430   */\n      dup2\n        /* \"#utility.yul\":15422:15436   */\n      lt\n        /* \"#utility.yul\":15415:15535   */\n      iszero\n      tag_289\n      jumpi\n        /* \"#utility.yul\":15486:15525   */\n      tag_290\n        /* \"#utility.yul\":15523:15524   */\n      0x00\n        /* \"#utility.yul\":15516:15521   */\n      dup3\n        /* \"#utility.yul\":15486:15525   */\n      tag_108\n      jump\t// in\n    tag_290:\n        /* \"#utility.yul\":15459:15460   */\n      0x01\n        /* \"#utility.yul\":15452:15457   */\n      dup2\n        /* \"#utility.yul\":15448:15461   */\n      add\n        /* \"#utility.yul\":15439:15461   */\n      swap1\n      pop\n        /* \"#utility.yul\":15415:15535   */\n      jump(tag_287)\n    tag_289:\n        /* \"#utility.yul\":15355:15541   */\n      pop\n      pop\n      jump\t// out\n        /* \"#utility.yul\":15547:16088   */\n    tag_110:\n        /* \"#utility.yul\":15647:15649   */\n      0x1f\n        /* \"#utility.yul\":15642:15645   */\n      dup3\n        /* \"#utility.yul\":15639:15650   */\n      gt\n        /* \"#utility.yul\":15636:16081   */\n      iszero\n      tag_292\n      jumpi\n        /* \"#utility.yul\":15681:15718   */\n      tag_293\n        /* \"#utility.yul\":15712:15717   */\n      dup2\n        /* \"#utility.yul\":15681:15718   */\n      tag_99\n      jump\t// in\n    tag_293:\n        /* \"#utility.yul\":15764:15793   */\n      tag_294\n        /* \"#utility.yul\":15782:15792   */\n      dup5\n        /* \"#utility.yul\":15764:15793   */\n      tag_100\n      jump\t// in\n    tag_294:\n        /* \"#utility.yul\":15754:15762   */\n      dup2\n        /* \"#utility.yul\":15750:15794   */\n      add\n        /* \"#utility.yul\":15947:15949   */\n      0x20\n        /* \"#utility.yul\":15935:15945   */\n      dup6\n        /* \"#utility.yul\":15932:15950   */\n      lt\n        /* \"#utility.yul\":15929:15978   */\n      iszero\n      tag_295\n      jumpi\n        /* \"#utility.yul\":15968:15976   */\n      dup2\n        /* \"#utility.yul\":15953:15976   */\n      swap1\n      pop\n        /* \"#utility.yul\":15929:15978   */\n    tag_295:\n        /* \"#utility.yul\":15991:16071   */\n      tag_296\n        /* \"#utility.yul\":16047:16069   */\n      tag_297\n        /* \"#utility.yul\":16065:16068   */\n      dup6\n        /* \"#utility.yul\":16047:16069   */\n      tag_100\n      jump\t// in\n    tag_297:\n        /* \"#utility.yul\":16037:16045   */\n      dup4\n        /* \"#utility.yul\":16033:16070   */\n      add\n        /* \"#utility.yul\":16020:16031   */\n      dup3\n        /* \"#utility.yul\":15991:16071   */\n      tag_109\n      jump\t// in\n    tag_296:\n        /* \"#utility.yul\":15651:16081   */\n      pop\n      pop\n        /* \"#utility.yul\":15636:16081   */\n    tag_292:\n        /* \"#utility.yul\":15547:16088   */\n      pop\n      pop\n      pop\n      jump\t// out\n        /* \"#utility.yul\":16094:16211   */\n    tag_111:\n        /* \"#utility.yul\":16148:16156   */\n      0x00\n        /* \"#utility.yul\":16198:16203   */\n      dup3\n        /* \"#utility.yul\":16192:16196   */\n      dup3\n        /* \"#utility.yul\":16188:16204   */\n      shr\n        /* \"#utility.yul\":16167:16204   */\n      swap1\n      pop\n        /* \"#utility.yul\":16094:16211   */\n      swap3\n      swap2\n      pop\n      pop\n      jump\t// out\n        /* \"#utility.yul\":16217:16386   */\n    tag_112:\n        /* \"#utility.yul\":16261:16267   */\n      0x00\n        /* \"#utility.yul\":16294:16345   */\n      tag_300\n        /* \"#utility.yul\":16342:16343   */\n      0x00\n        /* \"#utility.yul\":16338:16344   */\n      not\n        /* \"#utility.yul\":16330:16335   */\n      dup5\n        /* \"#utility.yul\":16327:16328   */\n      0x08\n        /* \"#utility.yul\":16323:16336   */\n      mul\n        /* \"#utility.yul\":16294:16345   */\n      tag_111\n      jump\t// in\n    tag_300:\n        /* \"#utility.yul\":16290:16346   */\n      not\n        /* \"#utility.yul\":16375:16379   */\n      dup1\n        /* \"#utility.yul\":16369:16373   */\n      dup4\n        /* \"#utility.yul\":16365:16380   */\n      and\n        /* \"#utility.yul\":16355:16380   */\n      swap2\n      pop\n        /* \"#utility.yul\":16268:16386   */\n      pop\n        /* \"#utility.yul\":16217:16386   */\n      swap3\n      swap2\n      pop\n      pop\n      jump\t// out\n        /* \"#utility.yul\":16391:16686   */\n    tag_113:\n        /* \"#utility.yul\":16467:16471   */\n      0x00\n        /* \"#utility.yul\":16613:16642   */\n      tag_302\n        /* \"#utility.yul\":16638:16641   */\n      dup4\n        /* \"#utility.yul\":16632:16636   */\n      dup4\n        /* \"#utility.yul\":16613:16642   */\n      tag_112\n      jump\t// in\n    tag_302:\n        /* \"#utility.yul\":16605:16642   */\n      swap2\n      pop\n        /* \"#utility.yul\":16675:16678   */\n      dup3\n        /* \"#utility.yul\":16672:16673   */\n      0x02\n        /* \"#utility.yul\":16668:16679   */\n      mul\n        /* \"#utility.yul\":16662:16666   */\n      dup3\n        /* \"#utility.yul\":16659:16680   */\n      or\n        /* \"#utility.yul\":16651:16680   */\n      swap1\n      pop\n        /* \"#utility.yul\":16391:16686   */\n      swap3\n      swap2\n      pop\n      pop\n      jump\t// out\n        /* \"#utility.yul\":16691:18081   */\n    tag_48:\n        /* \"#utility.yul\":16806:16842   */\n      tag_304\n        /* \"#utility.yul\":16838:16841   */\n      dup3\n        /* \"#utility.yul\":16806:16842   */\n      tag_63\n      jump\t// in\n    tag_304:\n        /* \"#utility.yul\":16907:16925   */\n      0xffffffffffffffff\n        /* \"#utility.yul\":16899:16905   */\n      dup2\n        /* \"#utility.yul\":16896:16926   */\n      gt\n        /* \"#utility.yul\":16893:16949   */\n      iszero\n      tag_305\n      jumpi\n        /* \"#utility.yul\":16929:16947   */\n      tag_306\n      tag_77\n      jump\t// in\n    tag_306:\n        /* \"#utility.yul\":16893:16949   */\n    tag_305:\n        /* \"#utility.yul\":16973:17011   */\n      tag_307\n        /* \"#utility.yul\":17005:17009   */\n      dup3\n        /* \"#utility.yul\":16999:17010   */\n      sload\n        /* \"#utility.yul\":16973:17011   */\n      tag_28\n      jump\t// in\n    tag_307:\n        /* \"#utility.yul\":17058:17124   */\n      tag_308\n        /* \"#utility.yul\":17117:17123   */\n      dup3\n        /* \"#utility.yul\":17109:17115   */\n      dup3\n        /* \"#utility.yul\":17103:17107   */\n      dup6\n        /* \"#utility.yul\":17058:17124   */\n      tag_110\n      jump\t// in\n    tag_308:\n        /* \"#utility.yul\":17151:17152   */\n      0x00\n        /* \"#utility.yul\":17175:17179   */\n      0x20\n        /* \"#utility.yul\":17162:17179   */\n      swap1\n      pop\n        /* \"#utility.yul\":17207:17209   */\n      0x1f\n        /* \"#utility.yul\":17199:17205   */\n      dup4\n        /* \"#utility.yul\":17196:17210   */\n      gt\n        /* \"#utility.yul\":17224:17225   */\n      0x01\n        /* \"#utility.yul\":17219:17836   */\n      dup2\n      eq\n      tag_310\n      jumpi\n        /* \"#utility.yul\":17880:17881   */\n      0x00\n        /* \"#utility.yul\":17897:17903   */\n      dup5\n        /* \"#utility.yul\":17894:17971   */\n      iszero\n      tag_311\n      jumpi\n        /* \"#utility.yul\":17946:17955   */\n      dup3\n        /* \"#utility.yul\":17941:17944   */\n      dup8\n        /* \"#utility.yul\":17937:17956   */\n      add\n        /* \"#utility.yul\":17931:17957   */\n      mload\n        /* \"#utility.yul\":17922:17957   */\n      swap1\n      pop\n        /* \"#utility.yul\":17894:17971   */\n    tag_311:\n        /* \"#utility.yul\":17997:18064   */\n      tag_312\n        /* \"#utility.yul\":18057:18063   */\n      dup6\n        /* \"#utility.yul\":18050:18055   */\n      dup3\n        /* \"#utility.yul\":17997:18064   */\n      tag_113\n      jump\t// in\n    tag_312:\n        /* \"#utility.yul\":17991:17995   */\n      dup7\n        /* \"#utility.yul\":17984:18065   */\n      sstore\n        /* \"#utility.yul\":17853:18075   */\n      pop\n        /* \"#utility.yul\":17189:18075   */\n      jump(tag_309)\n        /* \"#utility.yul\":17219:17836   */\n    tag_310:\n        /* \"#utility.yul\":17271:17275   */\n      0x1f\n        /* \"#utility.yul\":17267:17276   */\n      not\n        /* \"#utility.yul\":17259:17265   */\n      dup5\n        /* \"#utility.yul\":17255:17277   */\n      and\n        /* \"#utility.yul\":17305:17341   */\n      tag_313\n        /* \"#utility.yul\":17336:17340   */\n      dup7\n        /* \"#utility.yul\":17305:17341   */\n      tag_99\n      jump\t// in\n    tag_313:\n        /* \"#utility.yul\":17363:17364   */\n      0x00\n        /* \"#utility.yul\":17377:17585   */\n    tag_314:\n        /* \"#utility.yul\":17391:17398   */\n      dup3\n        /* \"#utility.yul\":17388:17389   */\n      dup2\n        /* \"#utility.yul\":17385:17399   */\n      lt\n        /* \"#utility.yul\":17377:17585   */\n      iszero\n      tag_316\n      jumpi\n        /* \"#utility.yul\":17470:17479   */\n      dup5\n        /* \"#utility.yul\":17465:17468   */\n      dup10\n        /* \"#utility.yul\":17461:17480   */\n      add\n        /* \"#utility.yul\":17455:17481   */\n      mload\n        /* \"#utility.yul\":17447:17453   */\n      dup3\n        /* \"#utility.yul\":17440:17482   */\n      sstore\n        /* \"#utility.yul\":17521:17522   */\n      0x01\n        /* \"#utility.yul\":17513:17519   */\n      dup3\n        /* \"#utility.yul\":17509:17523   */\n      add\n        /* \"#utility.yul\":17499:17523   */\n      swap2\n      pop\n        /* \"#utility.yul\":17568:17570   */\n      0x20\n        /* \"#utility.yul\":17557:17566   */\n      dup6\n        /* \"#utility.yul\":17553:17571   */\n      add\n        /* \"#utility.yul\":17540:17571   */\n      swap5\n      pop\n        /* \"#utility.yul\":17414:17418   */\n      0x20\n        /* \"#utility.yul\":17411:17412   */\n      dup2\n        /* \"#utility.yul\":17407:17419   */\n      add\n        /* \"#utility.yul\":17402:17419   */\n      swap1\n      pop\n        /* \"#utility.yul\":17377:17585   */\n      jump(tag_314)\n    tag_316:\n        /* \"#utility.yul\":17613:17619   */\n      dup7\n        /* \"#utility.yul\":17604:17611   */\n      dup4\n        /* \"#utility.yul\":17601:17620   */\n      lt\n        /* \"#utility.yul\":17598:17777   */\n      iszero\n      tag_317\n      jumpi\n        /* \"#utility.yul\":17671:17680   */\n      dup5\n        /* \"#utility.yul\":17666:17669   */\n      dup10\n        /* \"#utility.yul\":17662:17681   */\n      add\n        /* \"#utility.yul\":17656:17682   */\n      mload\n        /* \"#utility.yul\":17714:17762   */\n      tag_318\n        /* \"#utility.yul\":17756:17760   */\n      0x1f\n        /* \"#utility.yul\":17748:17754   */\n      dup10\n        /* \"#utility.yul\":17744:17761   */\n      and\n        /* \"#utility.yul\":17733:17742   */\n      dup3\n        /* \"#utility.yul\":17714:17762   */\n      tag_112\n      jump\t// in\n    tag_318:\n        /* \"#utility.yul\":17706:17712   */\n      dup4\n        /* \"#utility.yul\":17699:17763   */\n      sstore\n        /* \"#utility.yul\":17621:17777   */\n      pop\n        /* \"#utility.yul\":17598:17777   */\n    tag_317:\n        /* \"#utility.yul\":17823:17824   */\n      0x01\n        /* \"#utility.yul\":17819:17820   */\n      0x02\n        /* \"#utility.yul\":17811:17817   */\n      dup9\n        /* \"#utility.yul\":17807:17821   */\n      mul\n        /* \"#utility.yul\":17803:17825   */\n      add\n        /* \"#utility.yul\":17797:17801   */\n      dup9\n        /* \"#utility.yul\":17790:17826   */\n      sstore\n        /* \"#utility.yul\":17226:17836   */\n      pop\n      pop\n      pop\n        /* \"#utility.yul\":17189:18075   */\n    tag_309:\n      pop\n        /* \"#utility.yul\":16781:18081   */\n      pop\n      pop\n      pop\n        /* \"#utility.yul\":16691:18081   */\n      pop\n      pop\n      jump\t// out\n        /* \"#utility.yul\":18087:18228   */\n    tag_114:\n        /* \"#utility.yul\":18136:18140   */\n      0x00\n        /* \"#utility.yul\":18159:18162   */\n      dup2\n        /* \"#utility.yul\":18151:18162   */\n      swap1\n      pop\n        /* \"#utility.yul\":18182:18185   */\n      dup2\n        /* \"#utility.yul\":18179:18180   */\n      0x00\n        /* \"#utility.yul\":18172:18186   */\n      mstore\n        /* \"#utility.yul\":18216:18220   */\n      0x20\n        /* \"#utility.yul\":18213:18214   */\n      0x00\n        /* \"#utility.yul\":18203:18221   */\n      keccak256\n        /* \"#utility.yul\":18195:18221   */\n      swap1\n      pop\n        /* \"#utility.yul\":18087:18228   */\n      swap2\n      swap1\n      pop\n      jump\t// out\n        /* \"#utility.yul\":18234:18777   */\n    tag_115:\n        /* \"#utility.yul\":18335:18337   */\n      0x1f\n        /* \"#utility.yul\":18330:18333   */\n      dup3\n        /* \"#utility.yul\":18327:18338   */\n      gt\n        /* \"#utility.yul\":18324:18770   */\n      iszero\n      tag_321\n      jumpi\n        /* \"#utility.yul\":18369:18407   */\n      tag_322\n        /* \"#utility.yul\":18401:18406   */\n      dup2\n        /* \"#utility.yul\":18369:18407   */\n      tag_114\n      jump\t// in\n    tag_322:\n        /* \"#utility.yul\":18453:18482   */\n      tag_323\n        /* \"#utility.yul\":18471:18481   */\n      dup5\n        /* \"#utility.yul\":18453:18482   */\n      tag_100\n      jump\t// in\n    tag_323:\n        /* \"#utility.yul\":18443:18451   */\n      dup2\n        /* \"#utility.yul\":18439:18483   */\n      add\n        /* \"#utility.yul\":18636:18638   */\n      0x20\n        /* \"#utility.yul\":18624:18634   */\n      dup6\n        /* \"#utility.yul\":18621:18639   */\n      lt\n        /* \"#utility.yul\":18618:18667   */\n      iszero\n      tag_324\n      jumpi\n        /* \"#utility.yul\":18657:18665   */\n      dup2\n        /* \"#utility.yul\":18642:18665   */\n      swap1\n      pop\n        /* \"#utility.yul\":18618:18667   */\n    tag_324:\n        /* \"#utility.yul\":18680:18760   */\n      tag_325\n        /* \"#utility.yul\":18736:18758   */\n      tag_326\n        /* \"#utility.yul\":18754:18757   */\n      dup6\n        /* \"#utility.yul\":18736:18758   */\n      tag_100\n      jump\t// in\n    tag_326:\n        /* \"#utility.yul\":18726:18734   */\n      dup4\n        /* \"#utility.yul\":18722:18759   */\n      add\n        /* \"#utility.yul\":18709:18720   */\n      dup3\n        /* \"#utility.yul\":18680:18760   */\n      tag_109\n      jump\t// in\n    tag_325:\n        /* \"#utility.yul\":18339:18770   */\n      pop\n      pop\n        /* \"#utility.yul\":18324:18770   */\n    tag_321:\n        /* \"#utility.yul\":18234:18777   */\n      pop\n      pop\n      pop\n      jump\t// out\n        /* \"#utility.yul\":18783:20178   */\n    tag_50:\n        /* \"#utility.yul\":18900:18937   */\n      tag_328\n        /* \"#utility.yul\":18933:18936   */\n      dup3\n        /* \"#utility.yul\":18900:18937   */\n      tag_72\n      jump\t// in\n    tag_328:\n        /* \"#utility.yul\":19002:19020   */\n      0xffffffffffffffff\n        /* \"#utility.yul\":18994:19000   */\n      dup2\n        /* \"#utility.yul\":18991:19021   */\n      gt\n        /* \"#utility.yul\":18988:19044   */\n      iszero\n      tag_329\n      jumpi\n        /* \"#utility.yul\":19024:19042   */\n      tag_330\n      tag_77\n      jump\t// in\n    tag_330:\n        /* \"#utility.yul\":18988:19044   */\n    tag_329:\n        /* \"#utility.yul\":19068:19106   */\n      tag_331\n        /* \"#utility.yul\":19100:19104   */\n      dup3\n        /* \"#utility.yul\":19094:19105   */\n      sload\n        /* \"#utility.yul\":19068:19106   */\n      tag_28\n      jump\t// in\n    tag_331:\n        /* \"#utility.yul\":19153:19220   */\n      tag_332\n        /* \"#utility.yul\":19213:19219   */\n      dup3\n        /* \"#utility.yul\":19205:19211   */\n      dup3\n        /* \"#utility.yul\":19199:19203   */\n      dup6\n        /* \"#utility.yul\":19153:19220   */\n      tag_115\n      jump\t// in\n    tag_332:\n        /* \"#utility.yul\":19247:19248   */\n      0x00\n        /* \"#utility.yul\":19271:19275   */\n      0x20\n        /* \"#utility.yul\":19258:19275   */\n      swap1\n      pop\n        /* \"#utility.yul\":19303:19305   */\n      0x1f\n        /* \"#utility.yul\":19295:19301   */\n      dup4\n        /* \"#utility.yul\":19292:19306   */\n      gt\n        /* \"#utility.yul\":19320:19321   */\n      0x01\n        /* \"#utility.yul\":19315:19933   */\n      dup2\n      eq\n      tag_334\n      jumpi\n        /* \"#utility.yul\":19977:19978   */\n      0x00\n        /* \"#utility.yul\":19994:20000   */\n      dup5\n        /* \"#utility.yul\":19991:20068   */\n      iszero\n      tag_335\n      jumpi\n        /* \"#utility.yul\":20043:20052   */\n      dup3\n        /* \"#utility.yul\":20038:20041   */\n      dup8\n        /* \"#utility.yul\":20034:20053   */\n      add\n        /* \"#utility.yul\":20028:20054   */\n      mload\n        /* \"#utility.yul\":20019:20054   */\n      swap1\n      pop\n        /* \"#utility.yul\":19991:20068   */\n    tag_335:\n        /* \"#utility.yul\":20094:20161   */\n      tag_336\n        /* \"#utility.yul\":20154:20160   */\n      dup6\n        /* \"#utility.yul\":20147:20152   */\n      dup3\n        /* \"#utility.yul\":20094:20161   */\n      tag_113\n      jump\t// in\n    tag_336:\n        /* \"#utility.yul\":20088:20092   */\n      dup7\n        /* \"#utility.yul\":20081:20162   */\n      sstore\n        /* \"#utility.yul\":19950:20172   */\n      pop\n        /* \"#utility.yul\":19285:20172   */\n      jump(tag_333)\n        /* \"#utility.yul\":19315:19933   */\n    tag_334:\n        /* \"#utility.yul\":19367:19371   */\n      0x1f\n        /* \"#utility.yul\":19363:19372   */\n      not\n        /* \"#utility.yul\":19355:19361   */\n      dup5\n        /* \"#utility.yul\":19351:19373   */\n      and\n        /* \"#utility.yul\":19401:19438   */\n      tag_337\n        /* \"#utility.yul\":19433:19437   */\n      dup7\n        /* \"#utility.yul\":19401:19438   */\n      tag_114\n      jump\t// in\n    tag_337:\n        /* \"#utility.yul\":19460:19461   */\n      0x00\n        /* \"#utility.yul\":19474:19682   */\n    tag_338:\n        /* \"#utility.yul\":19488:19495   */\n      dup3\n        /* \"#utility.yul\":19485:19486   */\n      dup2\n        /* \"#utility.yul\":19482:19496   */\n      lt\n        /* \"#utility.yul\":19474:19682   */\n      iszero\n      tag_340\n      jumpi\n        /* \"#utility.yul\":19567:19576   */\n      dup5\n        /* \"#utility.yul\":19562:19565   */\n      dup10\n        /* \"#utility.yul\":19558:19577   */\n      add\n        /* \"#utility.yul\":19552:19578   */\n      mload\n        /* \"#utility.yul\":19544:19550   */\n      dup3\n        /* \"#utility.yul\":19537:19579   */\n      sstore\n        /* \"#utility.yul\":19618:19619   */\n      0x01\n        /* \"#utility.yul\":19610:19616   */\n      dup3\n        /* \"#utility.yul\":19606:19620   */\n      add\n        /* \"#utility.yul\":19596:19620   */\n      swap2\n      pop\n        /* \"#utility.yul\":19665:19667   */\n      0x20\n        /* \"#utility.yul\":19654:19663   */\n      dup6\n        /* \"#utility.yul\":19650:19668   */\n      add\n        /* \"#utility.yul\":19637:19668   */\n      swap5\n      pop\n        /* \"#utility.yul\":19511:19515   */\n      0x20\n        /* \"#utility.yul\":19508:19509   */\n      dup2\n        /* \"#utility.yul\":19504:19516   */\n      add\n        /* \"#utility.yul\":19499:19516   */\n      swap1\n      pop\n        /* \"#utility.yul\":19474:19682   */\n      jump(tag_338)\n    tag_340:\n        /* \"#utility.yul\":19710:19716   */\n      dup7\n        /* \"#utility.yul\":19701:19708   */\n      dup4\n        /* \"#utility.yul\":19698:19717   */\n      lt\n        /* \"#utility.yul\":19695:19874   */\n      iszero\n      tag_341\n      jumpi\n        /* \"#utility.yul\":19768:19777   */\n      dup5\n        /* \"#utility.yul\":19763:19766   */\n      dup10\n        /* \"#utility.yul\":19759:19778   */\n      add\n        /* \"#utility.yul\":19753:19779   */\n      mload\n        /* \"#utility.yul\":19811:19859   */\n      tag_342\n        /* \"#utility.yul\":19853:19857   */\n      0x1f\n        /* \"#utility.yul\":19845:19851   */\n      dup10\n        /* \"#utility.yul\":19841:19858   */\n      and\n        /* \"#utility.yul\":19830:19839   */\n      dup3\n        /* \"#utility.yul\":19811:19859   */\n      tag_112\n      jump\t// in\n    tag_342:\n        /* \"#utility.yul\":19803:19809   */\n      dup4\n        /* \"#utility.yul\":19796:19860   */\n      sstore\n        /* \"#utility.yul\":19718:19874   */\n      pop\n        /* \"#utility.yul\":19695:19874   */\n    tag_341:\n        /* \"#utility.yul\":19920:19921   */\n      0x01\n        /* \"#utility.yul\":19916:19917   */\n      0x02\n        /* \"#utility.yul\":19908:19914   */\n      dup9\n        /* \"#utility.yul\":19904:19918   */\n      mul\n        /* \"#utility.yul\":19900:19922   */\n      add\n        /* \"#utility.yul\":19894:19898   */\n      dup9\n        /* \"#utility.yul\":19887:19923   */\n      sstore\n        /* \"#utility.yul\":19322:19933   */\n      pop\n      pop\n      pop\n        /* \"#utility.yul\":19285:20172   */\n    tag_333:\n      pop\n        /* \"#utility.yul\":18875:20178   */\n      pop\n      pop\n      pop\n        /* \"#utility.yul\":18783:20178   */\n      pop\n      pop\n      jump\t// out\n        /* \"#utility.yul\":20184:21236   */\n    tag_52:\n        /* \"#utility.yul\":20477:20481   */\n      0x00\n        /* \"#utility.yul\":20515:20518   */\n      0xe0\n        /* \"#utility.yul\":20504:20513   */\n      dup3\n        /* \"#utility.yul\":20500:20519   */\n      add\n        /* \"#utility.yul\":20492:20519   */\n      swap1\n      pop\n        /* \"#utility.yul\":20565:20574   */\n      dup2\n        /* \"#utility.yul\":20559:20563   */\n      dup2\n        /* \"#utility.yul\":20555:20575   */\n      sub\n        /* \"#utility.yul\":20551:20552   */\n      0x00\n        /* \"#utility.yul\":20540:20549   */\n      dup4\n        /* \"#utility.yul\":20536:20553   */\n      add\n        /* \"#utility.yul\":20529:20576   */\n      mstore\n        /* \"#utility.yul\":20593:20669   */\n      tag_344\n        /* \"#utility.yul\":20664:20668   */\n      dup2\n        /* \"#utility.yul\":20655:20661   */\n      dup11\n        /* \"#utility.yul\":20593:20669   */\n      tag_67\n      jump\t// in\n    tag_344:\n        /* \"#utility.yul\":20585:20669   */\n      swap1\n      pop\n        /* \"#utility.yul\":20679:20751   */\n      tag_345\n        /* \"#utility.yul\":20747:20749   */\n      0x20\n        /* \"#utility.yul\":20736:20745   */\n      dup4\n        /* \"#utility.yul\":20732:20750   */\n      add\n        /* \"#utility.yul\":20723:20729   */\n      dup10\n        /* \"#utility.yul\":20679:20751   */\n      tag_69\n      jump\t// in\n    tag_345:\n        /* \"#utility.yul\":20761:20833   */\n      tag_346\n        /* \"#utility.yul\":20829:20831   */\n      0x40\n        /* \"#utility.yul\":20818:20827   */\n      dup4\n        /* \"#utility.yul\":20814:20832   */\n      add\n        /* \"#utility.yul\":20805:20811   */\n      dup9\n        /* \"#utility.yul\":20761:20833   */\n      tag_69\n      jump\t// in\n    tag_346:\n        /* \"#utility.yul\":20843:20915   */\n      tag_347\n        /* \"#utility.yul\":20911:20913   */\n      0x60\n        /* \"#utility.yul\":20900:20909   */\n      dup4\n        /* \"#utility.yul\":20896:20914   */\n      add\n        /* \"#utility.yul\":20887:20893   */\n      dup8\n        /* \"#utility.yul\":20843:20915   */\n      tag_59\n      jump\t// in\n    tag_347:\n        /* \"#utility.yul\":20925:20998   */\n      tag_348\n        /* \"#utility.yul\":20993:20996   */\n      0x80\n        /* \"#utility.yul\":20982:20991   */\n      dup4\n        /* \"#utility.yul\":20978:20997   */\n      add\n        /* \"#utility.yul\":20969:20975   */\n      dup7\n        /* \"#utility.yul\":20925:20998   */\n      tag_59\n      jump\t// in\n    tag_348:\n        /* \"#utility.yul\":21008:21075   */\n      tag_349\n        /* \"#utility.yul\":21070:21073   */\n      0xa0\n        /* \"#utility.yul\":21059:21068   */\n      dup4\n        /* \"#utility.yul\":21055:21074   */\n      add\n        /* \"#utility.yul\":21046:21052   */\n      dup6\n        /* \"#utility.yul\":21008:21075   */\n      tag_71\n      jump\t// in\n    tag_349:\n        /* \"#utility.yul\":21123:21132   */\n      dup2\n        /* \"#utility.yul\":21117:21121   */\n      dup2\n        /* \"#utility.yul\":21113:21133   */\n      sub\n        /* \"#utility.yul\":21107:21110   */\n      0xc0\n        /* \"#utility.yul\":21096:21105   */\n      dup4\n        /* \"#utility.yul\":21092:21111   */\n      add\n        /* \"#utility.yul\":21085:21134   */\n      mstore\n        /* \"#utility.yul\":21151:21229   */\n      tag_350\n        /* \"#utility.yul\":21224:21228   */\n      dup2\n        /* \"#utility.yul\":21215:21221   */\n      dup5\n        /* \"#utility.yul\":21151:21229   */\n      tag_74\n      jump\t// in\n    tag_350:\n        /* \"#utility.yul\":21143:21229   */\n      swap1\n      pop\n        /* \"#utility.yul\":20184:21236   */\n      swap9\n      swap8\n      pop\n      pop\n      pop\n      pop\n      pop\n      pop\n      pop\n      pop\n      jump\t// out\n\n    auxdata: 0xa2646970667358221220b070c3af6fde3e465ea4f2617463580229bb6ce77b849cd34301edd0eb50e97e64736f6c634300081e0033\n}\n",
				"bytecode": {
					"linkReferences": {},
					"object": "6080604052348015600e575f5ffd5b506110e58061001c5f395ff3fe608060405234801561000f575f5ffd5b506004361061004a575f3560e01c806303e9e6091461004e57806338cbdb191461008657806355438bf6146100a2578063fea68189146100d2575b5f5ffd5b610068600480360381019061006391906105aa565b6100f0565b60405161007d99989796959493929190610717565b60405180910390f35b6100a0600480360381019061009b91906109ce565b610298565b005b6100bc60048036038101906100b79190610acd565b61054c565b6040516100c99190610af8565b60405180910390f35b6100da610561565b6040516100e79190610af8565b60405180910390f35b5f5f60605f5f5f5f5f60605f60015f8c81526020019081526020015f209050805f0154816001015f9054906101000a900473ffffffffffffffffffffffffffffffffffffffff16826002018360030154846004015485600501548660060154876007015f9054906101000a900460ff168860080186805461017090610b3e565b80601f016020809104026020016040519081016040528092919081815260200182805461019c90610b3e565b80156101e75780601f106101be576101008083540402835291602001916101e7565b820191905f5260205f20905b8154815290600101906020018083116101ca57829003601f168201915b505050505096508080546101fa90610b3e565b80601f016020809104026020016040519081016040528092919081815260200182805461022690610b3e565b80156102715780601f1061024857610100808354040283529160200191610271565b820191905f5260205f20905b81548152906001019060200180831161025457829003601f168201915b50505050509050995099509950995099509950995099509950509193959799909294969850565b60025f3373ffffffffffffffffffffffffffffffffffffffff1673ffffffffffffffffffffffffffffffffffffffff1681526020019081526020015f20548411610317576040517f08c379a000000000000000000000000000000000000000000000000000000000815260040161030e90610bb8565b60405180910390fd5b85878051906020012014610360576040517f08c379a000000000000000000000000000000000000000000000000000000000815260040161035790610c20565b60405180910390fd5b5f60015f5461036f9190610c6b565b9050805f819055506040518061012001604052808281526020013373ffffffffffffffffffffffffffffffffffffffff16815260200189815260200188815260200187815260200186815260200185815260200184151581526020018381525060015f8381526020019081526020015f205f820151815f01556020820151816001015f6101000a81548173ffffffffffffffffffffffffffffffffffffffff021916908373ffffffffffffffffffffffffffffffffffffffff16021790555060408201518160020190816104439190610e3e565b50606082015181600301556080820151816004015560a0820151816005015560c0820151816006015560e0820151816007015f6101000a81548160ff0219169083151502179055506101008201518160080190816104a19190610f65565b509050508460025f3373ffffffffffffffffffffffffffffffffffffffff1673ffffffffffffffffffffffffffffffffffffffff1681526020019081526020015f20819055503373ffffffffffffffffffffffffffffffffffffffff16817fbdbfbcd69a5f0040eaa878242bf59ea691a9a9253833955bd4385afa9546ceab8a8a8a8a8a8a8a60405161053a9796959493929190611034565b60405180910390a35050505050505050565b6002602052805f5260405f205f915090505481565b5f5481565b5f604051905090565b5f5ffd5b5f5ffd5b5f819050919050565b61058981610577565b8114610593575f5ffd5b50565b5f813590506105a481610580565b92915050565b5f602082840312156105bf576105be61056f565b5b5f6105cc84828501610596565b91505092915050565b6105de81610577565b82525050565b5f73ffffffffffffffffffffffffffffffffffffffff82169050919050565b5f61060d826105e4565b9050919050565b61061d81610603565b82525050565b5f81519050919050565b5f82825260208201905092915050565b8281835e5f83830152505050565b5f601f19601f8301169050919050565b5f61066582610623565b61066f818561062d565b935061067f81856020860161063d565b6106888161064b565b840191505092915050565b5f819050919050565b6106a581610693565b82525050565b5f8115159050919050565b6106bf816106ab565b82525050565b5f81519050919050565b5f82825260208201905092915050565b5f6106e9826106c5565b6106f381856106cf565b935061070381856020860161063d565b61070c8161064b565b840191505092915050565b5f6101208201905061072b5f83018c6105d5565b610738602083018b610614565b818103604083015261074a818a61065b565b9050610759606083018961069c565b610766608083018861069c565b61077360a08301876105d5565b61078060c08301866105d5565b61078d60e08301856106b6565b8181036101008301526107a081846106df565b90509a9950505050505050505050565b5f5ffd5b5f5ffd5b7f4e487b71000000000000000000000000000000000000000000000000000000005f52604160045260245ffd5b6107ee8261064b565b810181811067ffffffffffffffff8211171561080d5761080c6107b8565b5b80604052505050565b5f61081f610566565b905061082b82826107e5565b919050565b5f67ffffffffffffffff82111561084a576108496107b8565b5b6108538261064b565b9050602081019050919050565b828183375f83830152505050565b5f61088061087b84610830565b610816565b90508281526020810184848401111561089c5761089b6107b4565b5b6108a7848285610860565b509392505050565b5f82601f8301126108c3576108c26107b0565b5b81356108d384826020860161086e565b91505092915050565b6108e581610693565b81146108ef575f5ffd5b50565b5f81359050610900816108dc565b92915050565b61090f816106ab565b8114610919575f5ffd5b50565b5f8135905061092a81610906565b92915050565b5f67ffffffffffffffff82111561094a576109496107b8565b5b6109538261064b565b9050602081019050919050565b5f61097261096d84610930565b610816565b90508281526020810184848401111561098e5761098d6107b4565b5b610999848285610860565b509392505050565b5f82601f8301126109b5576109b46107b0565b5b81356109c5848260208601610960565b91505092915050565b5f5f5f5f5f5f5f60e0888a0312156109e9576109e861056f565b5b5f88013567ffffffffffffffff811115610a0657610a05610573565b5b610a128a828b016108af565b9750506020610a238a828b016108f2565b9650506040610a348a828b016108f2565b9550506060610a458a828b01610596565b9450506080610a568a828b01610596565b93505060a0610a678a828b0161091c565b92505060c088013567ffffffffffffffff811115610a8857610a87610573565b5b610a948a828b016109a1565b91505092959891949750929550565b610aac81610603565b8114610ab6575f5ffd5b50565b5f81359050610ac781610aa3565b92915050565b5f60208284031215610ae257610ae161056f565b5b5f610aef84828501610ab9565b91505092915050565b5f602082019050610b0b5f8301846105d5565b92915050565b7f4e487b71000000000000000000000000000000000000000000000000000000005f52602260045260245ffd5b5f6002820490506001821680610b5557607f821691505b602082108103610b6857610b67610b11565b5b50919050565b7f7374616c65206e6f6e63650000000000000000000000000000000000000000005f82015250565b5f610ba2600b836106cf565b9150610bad82610b6e565b602082019050919050565b5f6020820190508181035f830152610bcf81610b96565b9050919050565b7f7061796c6f61642068617368206d69736d6174636800000000000000000000005f82015250565b5f610c0a6015836106cf565b9150610c1582610bd6565b602082019050919050565b5f6020820190508181035f830152610c3781610bfe565b9050919050565b7f4e487b71000000000000000000000000000000000000000000000000000000005f52601160045260245ffd5b5f610c7582610577565b9150610c8083610577565b9250828201905080821115610c9857610c97610c3e565b5b92915050565b5f819050815f5260205f209050919050565b5f6020601f8301049050919050565b5f82821b905092915050565b5f60088302610cfa7fffffffffffffffffffffffffffffffffffffffffffffffffffffffffffffffff82610cbf565b610d048683610cbf565b95508019841693508086168417925050509392505050565b5f819050919050565b5f610d3f610d3a610d3584610577565b610d1c565b610577565b9050919050565b5f819050919050565b610d5883610d25565b610d6c610d6482610d46565b848454610ccb565b825550505050565b5f5f905090565b610d83610d74565b610d8e818484610d4f565b505050565b5b81811015610db157610da65f82610d7b565b600181019050610d94565b5050565b601f821115610df657610dc781610c9e565b610dd084610cb0565b81016020851015610ddf578190505b610df3610deb85610cb0565b830182610d93565b50505b505050565b5f82821c905092915050565b5f610e165f1984600802610dfb565b1980831691505092915050565b5f610e2e8383610e07565b9150826002028217905092915050565b610e4782610623565b67ffffffffffffffff811115610e6057610e5f6107b8565b5b610e6a8254610b3e565b610e75828285610db5565b5f60209050601f831160018114610ea6575f8415610e94578287015190505b610e9e8582610e23565b865550610f05565b601f198416610eb486610c9e565b5f5b82811015610edb57848901518255600182019150602085019450602081019050610eb6565b86831015610ef85784890151610ef4601f891682610e07565b8355505b6001600288020188555050505b505050505050565b5f819050815f5260205f209050919050565b601f821115610f6057610f3181610f0d565b610f3a84610cb0565b81016020851015610f49578190505b610f5d610f5585610cb0565b830182610d93565b50505b505050565b610f6e826106c5565b67ffffffffffffffff811115610f8757610f866107b8565b5b610f918254610b3e565b610f9c828285610f1f565b5f60209050601f831160018114610fcd575f8415610fbb578287015190505b610fc58582610e23565b86555061102c565b601f198416610fdb86610f0d565b5f5b8281101561100257848901518255600182019150602085019450602081019050610fdd565b8683101561101f578489015161101b601f891682610e07565b8355505b6001600288020188555050505b505050505050565b5f60e0820190508181035f83015261104c818a61065b565b905061105b602083018961069c565b611068604083018861069c565b61107560608301876105d5565b61108260808301866105d5565b61108f60a08301856106b6565b81810360c08301526110a181846106df565b90509897505050505050505056fea2646970667358221220b070c3af6fde3e465ea4f2617463580229bb6ce77b849cd34301edd0eb50e97e64736f6c634300081e0033",
					"opcodes": "PUSH1 0x80 PUSH1 0x40 MSTORE CALLVALUE DUP1 ISZERO PUSH1 0xE JUMPI PUSH0 PUSH0 REVERT JUMPDEST POP PUSH2 0x10E5 DUP1 PUSH2 0x1C PUSH0 CODECOPY PUSH0 RETURN INVALID PUSH1 0x80 PUSH1 0x40 MSTORE CALLVALUE DUP1 ISZERO PUSH2 0xF JUMPI PUSH0 PUSH0 REVERT JUMPDEST POP PUSH1 0x4 CALLDATASIZE LT PUSH2 0x4A JUMPI PUSH0 CALLDATALOAD PUSH1 0xE0 SHR DUP1 PUSH4 0x3E9E609 EQ PUSH2 0x4E JUMPI DUP1 PUSH4 0x38CBDB19 EQ PUSH2 0x86 JUMPI DUP1 PUSH4 0x55438BF6 EQ PUSH2 0xA2 JUMPI DUP1 PUSH4 0xFEA68189 EQ PUSH2 0xD2 JUMPI JUMPDEST PUSH0 PUSH0 REVERT JUMPDEST PUSH2 0x68 PUSH1 0x4 DUP1 CALLDATASIZE SUB DUP2 ADD SWAP1 PUSH2 0x63 SWAP2 SWAP1 PUSH2 0x5AA JUMP JUMPDEST PUSH2 0xF0 JUMP JUMPDEST PUSH1 0x40 MLOAD PUSH2 0x7D SWAP10 SWAP9 SWAP8 SWAP7 SWAP6 SWAP5 SWAP4 SWAP3 SWAP2 SWAP1 PUSH2 0x717 JUMP JUMPDEST PUSH1 0x40 MLOAD DUP1 SWAP2 SUB SWAP1 RETURN JUMPDEST PUSH2 0xA0 PUSH1 0x4 DUP1 CALLDATASIZE SUB DUP2 ADD SWAP1 PUSH2 0x9B SWAP2 SWAP1 PUSH2 0x9CE JUMP JUMPDEST PUSH2 0x298 JUMP JUMPDEST STOP JUMPDEST PUSH2 0xBC PUSH1 0x4 DUP1 CALLDATASIZE SUB DUP2 ADD SWAP1 PUSH2 0xB7 SWAP2 SWAP1 PUSH2 0xACD JUMP JUMPDEST PUSH2 0x54C JUMP JUMPDEST PUSH1 0x40 MLOAD PUSH2 0xC9 SWAP2 SWAP1 PUSH2 0xAF8 JUMP JUMPDEST PUSH1 0x40 MLOAD DUP1 SWAP2 SUB SWAP1 RETURN JUMPDEST PUSH2 0xDA PUSH2 0x561 JUMP JUMPDEST PUSH1 0x40 MLOAD PUSH2 0xE7 SWAP2 SWAP1 PUSH2 0xAF8 JUMP JUMPDEST PUSH1 0x40 MLOAD DUP1 SWAP2 SUB SWAP1 RETURN JUMPDEST PUSH0 PUSH0 PUSH1 0x60 PUSH0 PUSH0 PUSH0 PUSH0 PUSH0 PUSH1 0x60 PUSH0 PUSH1 0x1 PUSH0 DUP13 DUP2 MSTORE PUSH1 0x20 ADD SWAP1 DUP2 MSTORE PUSH1 0x20 ADD PUSH0 KECCAK256 SWAP1 POP DUP1 PUSH0 ADD SLOAD DUP2 PUSH1 0x1 ADD PUSH0 SWAP1 SLOAD SWAP1 PUSH2 0x100 EXP SWAP1 DIV PUSH20 0xFFFFFFFFFFFFFFFFFFFFFFFFFFFFFFFFFFFFFFFF AND DUP3 PUSH1 0x2 ADD DUP4 PUSH1 0x3 ADD SLOAD DUP5 PUSH1 0x4 ADD SLOAD DUP6 PUSH1 0x5 ADD SLOAD DUP7 PUSH1 0x6 ADD SLOAD DUP8 PUSH1 0x7 ADD PUSH0 SWAP1 SLOAD SWAP1 PUSH2 0x100 EXP SWAP1 DIV PUSH1 0xFF AND DUP9 PUSH1 0x8 ADD DUP7 DUP1 SLOAD PUSH2 0x170 SWAP1 PUSH2 0xB3E JUMP JUMPDEST DUP1 PUSH1 0x1F ADD PUSH1 0x20 DUP1 SWAP2 DIV MUL PUSH1 0x20 ADD PUSH1 0x40 MLOAD SWAP1 DUP2 ADD PUSH1 0x40 MSTORE DUP1 SWAP3 SWAP2 SWAP1 DUP2 DUP2 MSTORE PUSH1 0x20 ADD DUP3 DUP1 SLOAD PUSH2 0x19C SWAP1 PUSH2 0xB3E JUMP JUMPDEST DUP1 ISZERO PUSH2 0x1E7 JUMPI DUP1 PUSH1 0x1F LT PUSH2 0x1BE JUMPI PUSH2 0x100 DUP1 DUP4 SLOAD DIV MUL DUP4 MSTORE SWAP2 PUSH1 0x20 ADD SWAP2 PUSH2 0x1E7 JUMP JUMPDEST DUP3 ADD SWAP2 SWAP1 PUSH0 MSTORE PUSH1 0x20 PUSH0 KECCAK256 SWAP1 JUMPDEST DUP2 SLOAD DUP2 MSTORE SWAP1 PUSH1 0x1 ADD SWAP1 PUSH1 0x20 ADD DUP1 DUP4 GT PUSH2 0x1CA JUMPI DUP3 SWAP1 SUB PUSH1 0x1F AND DUP3 ADD SWAP2 JUMPDEST POP POP POP POP POP SWAP7 POP DUP1 DUP1 SLOAD PUSH2 0x1FA SWAP1 PUSH2 0xB3E JUMP JUMPDEST DUP1 PUSH1 0x1F ADD PUSH1 0x20 DUP1 SWAP2 DIV MUL PUSH1 0x20 ADD PUSH1 0x40 MLOAD SWAP1 DUP2 ADD PUSH1 0x40 MSTORE DUP1 SWAP3 SWAP2 SWAP1 DUP2 DUP2 MSTORE PUSH1 0x20 ADD DUP3 DUP1 SLOAD PUSH2 0x226 SWAP1 PUSH2 0xB3E JUMP JUMPDEST DUP1 ISZERO PUSH2 0x271 JUMPI DUP1 PUSH1 0x1F LT PUSH2 0x248 JUMPI PUSH2 0x100 DUP1 DUP4 SLOAD DIV MUL DUP4 MSTORE SWAP2 PUSH1 0x20 ADD SWAP2 PUSH2 0x271 JUMP JUMPDEST DUP3 ADD SWAP2 SWAP1 PUSH0 MSTORE PUSH1 0x20 PUSH0 KECCAK256 SWAP1 JUMPDEST DUP2 SLOAD DUP2 MSTORE SWAP1 PUSH1 0x1 ADD SWAP1 PUSH1 0x20 ADD DUP1 DUP4 GT PUSH2 0x254 JUMPI DUP3 SWAP1 SUB PUSH1 0x1F AND DUP3 ADD SWAP2 JUMPDEST POP POP POP POP POP SWAP1 POP SWAP10 POP SWAP10 POP SWAP10 POP SWAP10 POP SWAP10 POP SWAP10 POP SWAP10 POP SWAP10 POP SWAP10 POP POP SWAP2 SWAP4 SWAP6 SWAP8 SWAP10 SWAP1 SWAP3 SWAP5 SWAP7 SWAP9 POP JUMP JUMPDEST PUSH1 0x2 PUSH0 CALLER PUSH20 0xFFFFFFFFFFFFFFFFFFFFFFFFFFFFFFFFFFFFFFFF AND PUSH20 0xFFFFFFFFFFFFFFFFFFFFFFFFFFFFFFFFFFFFFFFF AND DUP2 MSTORE PUSH1 0x20 ADD SWAP1 DUP2 MSTORE PUSH1 0x20 ADD PUSH0 KECCAK256 SLOAD DUP5 GT PUSH2 0x317 JUMPI PUSH1 0x40 MLOAD PUSH32 0x8C379A000000000000000000000000000000000000000000000000000000000 DUP2 MSTORE PUSH1 0x4 ADD PUSH2 0x30E SWAP1 PUSH2 0xBB8 JUMP JUMPDEST PUSH1 0x40 MLOAD DUP1 SWAP2 SUB SWAP1 REVERT JUMPDEST DUP6 DUP8 DUP1 MLOAD SWAP1 PUSH1 0x20 ADD KECCAK256 EQ PUSH2 0x360 JUMPI PUSH1 0x40 MLOAD PUSH32 0x8C379A000000000000000000000000000000000000000000000000000000000 DUP2 MSTORE PUSH1 0x4 ADD PUSH2 0x357 SWAP1 PUSH2 0xC20 JUMP JUMPDEST PUSH1 0x40 MLOAD DUP1 SWAP2 SUB SWAP1 REVERT JUMPDEST PUSH0 PUSH1 0x1 PUSH0 SLOAD PUSH2 0x36F SWAP2 SWAP1 PUSH2 0xC6B JUMP JUMPDEST SWAP1 POP DUP1 PUSH0 DUP2 SWAP1 SSTORE POP PUSH1 0x40 MLOAD DUP1 PUSH2 0x120 ADD PUSH1 0x40 MSTORE DUP1 DUP3 DUP2 MSTORE PUSH1 0x20 ADD CALLER PUSH20 0xFFFFFFFFFFFFFFFFFFFFFFFFFFFFFFFFFFFFFFFF AND DUP2 MSTORE PUSH1 0x20 ADD DUP10 DUP2 MSTORE PUSH1 0x20 ADD DUP9 DUP2 MSTORE PUSH1 0x20 ADD DUP8 DUP2 MSTORE PUSH1 0x20 ADD DUP7 DUP2 MSTORE PUSH1 0x20 ADD DUP6 DUP2 MSTORE PUSH1 0x20 ADD DUP5 ISZERO ISZERO DUP2 MSTORE PUSH1 0x20 ADD DUP4 DUP2 MSTORE POP PUSH1 0x1 PUSH0 DUP4 DUP2 MSTORE PUSH1 0x20 ADD SWAP1 DUP2 MSTORE PUSH1 0x20 ADD PUSH0 KECCAK256 PUSH0 DUP3 ADD MLOAD DUP2 PUSH0 ADD SSTORE PUSH1 0x20 DUP3 ADD MLOAD DUP2 PUSH1 0x1 ADD PUSH0 PUSH2 0x100 EXP DUP2 SLOAD DUP2 PUSH20 0xFFFFFFFFFFFFFFFFFFFFFFFFFFFFFFFFFFFFFFFF MUL NOT AND SWAP1 DUP4 PUSH20 0xFFFFFFFFFFFFFFFFFFFFFFFFFFFFFFFFFFFFFFFF AND MUL OR SWAP1 SSTORE POP PUSH1 0x40 DUP3 ADD MLOAD DUP2 PUSH1 0x2 ADD SWAP1 DUP2 PUSH2 0x443 SWAP2 SWAP1 PUSH2 0xE3E JUMP JUMPDEST POP PUSH1 0x60 DUP3 ADD MLOAD DUP2 PUSH1 0x3 ADD SSTORE PUSH1 0x80 DUP3 ADD MLOAD DUP2 PUSH1 0x4 ADD SSTORE PUSH1 0xA0 DUP3 ADD MLOAD DUP2 PUSH1 0x5 ADD SSTORE PUSH1 0xC0 DUP3 ADD MLOAD DUP2 PUSH1 0x6 ADD SSTORE PUSH1 0xE0 DUP3 ADD MLOAD DUP2 PUSH1 0x7 ADD PUSH0 PUSH2 0x100 EXP DUP2 SLOAD DUP2 PUSH1 0xFF MUL NOT AND SWAP1 DUP4 ISZERO ISZERO MUL OR SWAP1 SSTORE POP PUSH2 0x100 DUP3 ADD MLOAD DUP2 PUSH1 0x8 ADD SWAP1 DUP2 PUSH2 0x4A1 SWAP2 SWAP1 PUSH2 0xF65 JUMP JUMPDEST POP SWAP1 POP POP DUP5 PUSH1 0x2 PUSH0 CALLER PUSH20 0xFFFFFFFFFFFFFFFFFFFFFFFFFFFFFFFFFFFFFFFF AND PUSH20 0xFFFFFFFFFFFFFFFFFFFFFFFFFFFFFFFFFFFFFFFF AND DUP2 MSTORE PUSH1 0x20 ADD SWAP1 DUP2 MSTORE PUSH1 0x20 ADD PUSH0 KECCAK256 DUP2 SWAP1 SSTORE POP CALLER PUSH20 0xFFFFFFFFFFFFFFFFFFFFFFFFFFFFFFFFFFFFFFFF AND DUP2 PUSH32 0xBDBFBCD69A5F0040EAA878242BF59EA691A9A9253833955BD4385AFA9546CEAB DUP11 DUP11 DUP11 DUP11 DUP11 DUP11 DUP11 PUSH1 0x40 MLOAD PUSH2 0x53A SWAP8 SWAP7 SWAP6 SWAP5 SWAP4 SWAP3 SWAP2 SWAP1 PUSH2 0x1034 JUMP JUMPDEST PUSH1 0x40 MLOAD DUP1 SWAP2 SUB SWAP1 LOG3 POP POP POP POP POP POP POP POP JUMP JUMPDEST PUSH1 0x2 PUSH1 0x20 MSTORE DUP1 PUSH0 MSTORE PUSH1 0x40 PUSH0 KECCAK256 PUSH0 SWAP2 POP SWAP1 POP SLOAD DUP2 JUMP JUMPDEST PUSH0 SLOAD DUP2 JUMP JUMPDEST PUSH0 PUSH1 0x40 MLOAD SWAP1 POP SWAP1 JUMP JUMPDEST PUSH0 PUSH0 REVERT JUMPDEST PUSH0 PUSH0 REVERT JUMPDEST PUSH0 DUP2 SWAP1 POP SWAP2 SWAP1 POP JUMP JUMPDEST PUSH2 0x589 DUP2 PUSH2 0x577 JUMP JUMPDEST DUP2 EQ PUSH2 0x593 JUMPI PUSH0 PUSH0 REVERT JUMPDEST POP JUMP JUMPDEST PUSH0 DUP2 CALLDATALOAD SWAP1 POP PUSH2 0x5A4 DUP2 PUSH2 0x580 JUMP JUMPDEST SWAP3 SWAP2 POP POP JUMP JUMPDEST PUSH0 PUSH1 0x20 DUP3 DUP5 SUB SLT ISZERO PUSH2 0x5BF JUMPI PUSH2 0x5BE PUSH2 0x56F JUMP JUMPDEST JUMPDEST PUSH0 PUSH2 0x5CC DUP5 DUP3 DUP6 ADD PUSH2 0x596 JUMP JUMPDEST SWAP2 POP POP SWAP3 SWAP2 POP POP JUMP JUMPDEST PUSH2 0x5DE DUP2 PUSH2 0x577 JUMP JUMPDEST DUP3 MSTORE POP POP JUMP JUMPDEST PUSH0 PUSH20 0xFFFFFFFFFFFFFFFFFFFFFFFFFFFFFFFFFFFFFFFF DUP3 AND SWAP1 POP SWAP2 SWAP1 POP JUMP JUMPDEST PUSH0 PUSH2 0x60D DUP3 PUSH2 0x5E4 JUMP JUMPDEST SWAP1 POP SWAP2 SWAP1 POP JUMP JUMPDEST PUSH2 0x61D DUP2 PUSH2 0x603 JUMP JUMPDEST DUP3 MSTORE POP POP JUMP JUMPDEST PUSH0 DUP2 MLOAD SWAP1 POP SWAP2 SWAP1 POP JUMP JUMPDEST PUSH0 DUP3 DUP3 MSTORE PUSH1 0x20 DUP3 ADD SWAP1 POP SWAP3 SWAP2 POP POP JUMP JUMPDEST DUP3 DUP2 DUP4 MCOPY PUSH0 DUP4 DUP4 ADD MSTORE POP POP POP JUMP JUMPDEST PUSH0 PUSH1 0x1F NOT PUSH1 0x1F DUP4 ADD AND SWAP1 POP SWAP2 SWAP1 POP JUMP JUMPDEST PUSH0 PUSH2 0x665 DUP3 PUSH2 0x623 JUMP JUMPDEST PUSH2 0x66F DUP2 DUP6 PUSH2 0x62D JUMP JUMPDEST SWAP4 POP PUSH2 0x67F DUP2 DUP6 PUSH1 0x20 DUP7 ADD PUSH2 0x63D JUMP JUMPDEST PUSH2 0x688 DUP2 PUSH2 0x64B JUMP JUMPDEST DUP5 ADD SWAP2 POP POP SWAP3 SWAP2 POP POP JUMP JUMPDEST PUSH0 DUP2 SWAP1 POP SWAP2 SWAP1 POP JUMP JUMPDEST PUSH2 0x6A5 DUP2 PUSH2 0x693 JUMP JUMPDEST DUP3 MSTORE POP POP JUMP JUMPDEST PUSH0 DUP2 ISZERO ISZERO SWAP1 POP SWAP2 SWAP1 POP JUMP JUMPDEST PUSH2 0x6BF DUP2 PUSH2 0x6AB JUMP JUMPDEST DUP3 MSTORE POP POP JUMP JUMPDEST PUSH0 DUP2 MLOAD SWAP1 POP SWAP2 SWAP1 POP JUMP JUMPDEST PUSH0 DUP3 DUP3 MSTORE PUSH1 0x20 DUP3 ADD SWAP1 POP SWAP3 SWAP2 POP POP JUMP JUMPDEST PUSH0 PUSH2 0x6E9 DUP3 PUSH2 0x6C5 JUMP JUMPDEST PUSH2 0x6F3 DUP2 DUP6 PUSH2 0x6CF JUMP JUMPDEST SWAP4 POP PUSH2 0x703 DUP2 DUP6 PUSH1 0x20 DUP7 ADD PUSH2 0x63D JUMP JUMPDEST PUSH2 0x70C DUP2 PUSH2 0x64B JUMP JUMPDEST DUP5 ADD SWAP2 POP POP SWAP3 SWAP2 POP POP JUMP JUMPDEST PUSH0 PUSH2 0x120 DUP3 ADD SWAP1 POP PUSH2 0x72B PUSH0 DUP4 ADD DUP13 PUSH2 0x5D5 JUMP JUMPDEST PUSH2 0x738 PUSH1 0x20 DUP4 ADD DUP12 PUSH2 0x614 JUMP JUMPDEST DUP2 DUP2 SUB PUSH1 0x40 DUP4 ADD MSTORE PUSH2 0x74A DUP2 DUP11 PUSH2 0x65B JUMP JUMPDEST SWAP1 POP PUSH2 0x759 PUSH1 0x60 DUP4 ADD DUP10 PUSH2 0x69C JUMP JUMPDEST PUSH2 0x766 PUSH1 0x80 DUP4 ADD DUP9 PUSH2 0x69C JUMP JUMPDEST PUSH2 0x773 PUSH1 0xA0 DUP4 ADD DUP8 PUSH2 0x5D5 JUMP JUMPDEST PUSH2 0x780 PUSH1 0xC0 DUP4 ADD DUP7 PUSH2 0x5D5 JUMP JUMPDEST PUSH2 0x78D PUSH1 0xE0 DUP4 ADD DUP6 PUSH2 0x6B6 JUMP JUMPDEST DUP2 DUP2 SUB PUSH2 0x100 DUP4 ADD MSTORE PUSH2 0x7A0 DUP2 DUP5 PUSH2 0x6DF JUMP JUMPDEST SWAP1 POP SWAP11 SWAP10 POP POP POP POP POP POP POP POP POP POP JUMP JUMPDEST PUSH0 PUSH0 REVERT JUMPDEST PUSH0 PUSH0 REVERT JUMPDEST PUSH32 0x4E487B7100000000000000000000000000000000000000000000000000000000 PUSH0 MSTORE PUSH1 0x41 PUSH1 0x4 MSTORE PUSH1 0x24 PUSH0 REVERT JUMPDEST PUSH2 0x7EE DUP3 PUSH2 0x64B JUMP JUMPDEST DUP2 ADD DUP2 DUP2 LT PUSH8 0xFFFFFFFFFFFFFFFF DUP3 GT OR ISZERO PUSH2 0x80D JUMPI PUSH2 0x80C PUSH2 0x7B8 JUMP JUMPDEST JUMPDEST DUP1 PUSH1 0x40 MSTORE POP POP POP JUMP JUMPDEST PUSH0 PUSH2 0x81F PUSH2 0x566 JUMP JUMPDEST SWAP1 POP PUSH2 0x82B DUP3 DUP3 PUSH2 0x7E5 JUMP JUMPDEST SWAP2 SWAP1 POP JUMP JUMPDEST PUSH0 PUSH8 0xFFFFFFFFFFFFFFFF DUP3 GT ISZERO PUSH2 0x84A JUMPI PUSH2 0x849 PUSH2 0x7B8 JUMP JUMPDEST JUMPDEST PUSH2 0x853 DUP3 PUSH2 0x64B JUMP JUMPDEST SWAP1 POP PUSH1 0x20 DUP2 ADD SWAP1 POP SWAP2 SWAP1 POP JUMP JUMPDEST DUP3 DUP2 DUP4 CALLDATACOPY PUSH0 DUP4 DUP4 ADD MSTORE POP POP POP JUMP JUMPDEST PUSH0 PUSH2 0x880 PUSH2 0x87B DUP5 PUSH2 0x830 JUMP JUMPDEST PUSH2 0x816 JUMP JUMPDEST SWAP1 POP DUP3 DUP2 MSTORE PUSH1 0x20 DUP2 ADD DUP5 DUP5 DUP5 ADD GT ISZERO PUSH2 0x89C JUMPI PUSH2 0x89B PUSH2 0x7B4 JUMP JUMPDEST JUMPDEST PUSH2 0x8A7 DUP5 DUP3 DUP6 PUSH2 0x860 JUMP JUMPDEST POP SWAP4 SWAP3 POP POP POP JUMP JUMPDEST PUSH0 DUP3 PUSH1 0x1F DUP4 ADD SLT PUSH2 0x8C3 JUMPI PUSH2 0x8C2 PUSH2 0x7B0 JUMP JUMPDEST JUMPDEST DUP2 CALLDATALOAD PUSH2 0x8D3 DUP5 DUP3 PUSH1 0x20 DUP7 ADD PUSH2 0x86E JUMP JUMPDEST SWAP2 POP POP SWAP3 SWAP2 POP POP JUMP JUMPDEST PUSH2 0x8E5 DUP2 PUSH2 0x693 JUMP JUMPDEST DUP2 EQ PUSH2 0x8EF JUMPI PUSH0 PUSH0 REVERT JUMPDEST POP JUMP JUMPDEST PUSH0 DUP2 CALLDATALOAD SWAP1 POP PUSH2 0x900 DUP2 PUSH2 0x8DC JUMP JUMPDEST SWAP3 SWAP2 POP POP JUMP JUMPDEST PUSH2 0x90F DUP2 PUSH2 0x6AB JUMP JUMPDEST DUP2 EQ PUSH2 0x919 JUMPI PUSH0 PUSH0 REVERT JUMPDEST POP JUMP JUMPDEST PUSH0 DUP2 CALLDATALOAD SWAP1 POP PUSH2 0x92A DUP2 PUSH2 0x906 JUMP JUMPDEST SWAP3 SWAP2 POP POP JUMP JUMPDEST PUSH0 PUSH8 0xFFFFFFFFFFFFFFFF DUP3 GT ISZERO PUSH2 0x94A JUMPI PUSH2 0x949 PUSH2 0x7B8 JUMP JUMPDEST JUMPDEST PUSH2 0x953 DUP3 PUSH2 0x64B JUMP JUMPDEST SWAP1 POP PUSH1 0x20 DUP2 ADD SWAP1 POP SWAP2 SWAP1 POP JUMP JUMPDEST PUSH0 PUSH2 0x972 PUSH2 0x96D DUP5 PUSH2 0x930 JUMP JUMPDEST PUSH2 0x816 JUMP JUMPDEST SWAP1 POP DUP3 DUP2 MSTORE PUSH1 0x20 DUP2 ADD DUP5 DUP5 DUP5 ADD GT ISZERO PUSH2 0x98E JUMPI PUSH2 0x98D PUSH2 0x7B4 JUMP JUMPDEST JUMPDEST PUSH2 0x999 DUP5 DUP3 DUP6 PUSH2 0x860 JUMP JUMPDEST POP SWAP4 SWAP3 POP POP POP JUMP JUMPDEST PUSH0 DUP3 PUSH1 0x1F DUP4 ADD SLT PUSH2 0x9B5 JUMPI PUSH2 0x9B4 PUSH2 0x7B0 JUMP JUMPDEST JUMPDEST DUP2 CALLDATALOAD PUSH2 0x9C5 DUP5 DUP3 PUSH1 0x20 DUP7 ADD PUSH2 0x960 JUMP JUMPDEST SWAP2 POP POP SWAP3 SWAP2 POP POP JUMP JUMPDEST PUSH0 PUSH0 PUSH0 PUSH0 PUSH0 PUSH0 PUSH0 PUSH1 0xE0 DUP9 DUP11 SUB SLT ISZERO PUSH2 0x9E9 JUMPI PUSH2 0x9E8 PUSH2 0x56F JUMP JUMPDEST JUMPDEST PUSH0 DUP9 ADD CALLDATALOAD PUSH8 0xFFFFFFFFFFFFFFFF DUP2 GT ISZERO PUSH2 0xA06 JUMPI PUSH2 0xA05 PUSH2 0x573 JUMP JUMPDEST JUMPDEST PUSH2 0xA12 DUP11 DUP3 DUP12 ADD PUSH2 0x8AF JUMP JUMPDEST SWAP8 POP POP PUSH1 0x20 PUSH2 0xA23 DUP11 DUP3 DUP12 ADD PUSH2 0x8F2 JUMP JUMPDEST SWAP7 POP POP PUSH1 0x40 PUSH2 0xA34 DUP11 DUP3 DUP12 ADD PUSH2 0x8F2 JUMP JUMPDEST SWAP6 POP POP PUSH1 0x60 PUSH2 0xA45 DUP11 DUP3 DUP12 ADD PUSH2 0x596 JUMP JUMPDEST SWAP5 POP POP PUSH1 0x80 PUSH2 0xA56 DUP11 DUP3 DUP12 ADD PUSH2 0x596 JUMP JUMPDEST SWAP4 POP POP PUSH1 0xA0 PUSH2 0xA67 DUP11 DUP3 DUP12 ADD PUSH2 0x91C JUMP JUMPDEST SWAP3 POP POP PUSH1 0xC0 DUP9 ADD CALLDATALOAD PUSH8 0xFFFFFFFFFFFFFFFF DUP2 GT ISZERO PUSH2 0xA88 JUMPI PUSH2 0xA87 PUSH2 0x573 JUMP JUMPDEST JUMPDEST PUSH2 0xA94 DUP11 DUP3 DUP12 ADD PUSH2 0x9A1 JUMP JUMPDEST SWAP2 POP POP SWAP3 SWAP6 SWAP9 SWAP2 SWAP5 SWAP8 POP SWAP3 SWAP6 POP JUMP JUMPDEST PUSH2 0xAAC DUP2 PUSH2 0x603 JUMP JUMPDEST DUP2 EQ PUSH2 0xAB6 JUMPI PUSH0 PUSH0 REVERT JUMPDEST POP JUMP JUMPDEST PUSH0 DUP2 CALLDATALOAD SWAP1 POP PUSH2 0xAC7 DUP2 PUSH2 0xAA3 JUMP JUMPDEST SWAP3 SWAP2 POP POP JUMP JUMPDEST PUSH0 PUSH1 0x20 DUP3 DUP5 SUB SLT ISZERO PUSH2 0xAE2 JUMPI PUSH2 0xAE1 PUSH2 0x56F JUMP JUMPDEST JUMPDEST PUSH0 PUSH2 0xAEF DUP5 DUP3 DUP6 ADD PUSH2 0xAB9 JUMP JUMPDEST SWAP2 POP POP SWAP3 SWAP2 POP POP JUMP JUMPDEST PUSH0 PUSH1 0x20 DUP3 ADD SWAP1 POP PUSH2 0xB0B PUSH0 DUP4 ADD DUP5 PUSH2 0x5D5 JUMP JUMPDEST SWAP3 SWAP2 POP POP JUMP JUMPDEST PUSH32 0x4E487B7100000000000000000000000000000000000000000000000000000000 PUSH0 MSTORE PUSH1 0x22 PUSH1 0x4 MSTORE PUSH1 0x24 PUSH0 REVERT JUMPDEST PUSH0 PUSH1 0x2 DUP3 DIV SWAP1 POP PUSH1 0x1 DUP3 AND DUP1 PUSH2 0xB55 JUMPI PUSH1 0x7F DUP3 AND SWAP2 POP JUMPDEST PUSH1 0x20 DUP3 LT DUP2 SUB PUSH2 0xB68 JUMPI PUSH2 0xB67 PUSH2 0xB11 JUMP JUMPDEST JUMPDEST POP SWAP2 SWAP1 POP JUMP JUMPDEST PUSH32 0x7374616C65206E6F6E6365000000000000000000000000000000000000000000 PUSH0 DUP3 ADD MSTORE POP JUMP JUMPDEST PUSH0 PUSH2 0xBA2 PUSH1 0xB DUP4 PUSH2 0x6CF JUMP JUMPDEST SWAP2 POP PUSH2 0xBAD DUP3 PUSH2 0xB6E JUMP JUMPDEST PUSH1 0x20 DUP3 ADD SWAP1 POP SWAP2 SWAP1 POP JUMP JUMPDEST PUSH0 PUSH1 0x20 DUP3 ADD SWAP1 POP DUP2 DUP2 SUB PUSH0 DUP4 ADD MSTORE PUSH2 0xBCF DUP2 PUSH2 0xB96 JUMP JUMPDEST SWAP1 POP SWAP2 SWAP1 POP JUMP JUMPDEST PUSH32 0x7061796C6F61642068617368206D69736D617463680000000000000000000000 PUSH0 DUP3 ADD MSTORE POP JUMP JUMPDEST PUSH0 PUSH2 0xC0A PUSH1 0x15 DUP4 PUSH2 0x6CF JUMP JUMPDEST SWAP2 POP PUSH2 0xC15 DUP3 PUSH2 0xBD6 JUMP JUMPDEST PUSH1 0x20 DUP3 ADD SWAP1 POP SWAP2 SWAP1 POP JUMP JUMPDEST PUSH0 PUSH1 0x20 DUP3 ADD SWAP1 POP DUP2 DUP2 SUB PUSH0 DUP4 ADD MSTORE PUSH2 0xC37 DUP2 PUSH2 0xBFE JUMP JUMPDEST SWAP1 POP SWAP2 SWAP1 POP JUMP JUMPDEST PUSH32 0x4E487B7100000000000000000000000000000000000000000000000000000000 PUSH0 MSTORE PUSH1 0x11 PUSH1 0x4 MSTORE PUSH1 0x24 PUSH0 REVERT JUMPDEST PUSH0 PUSH2 0xC75 DUP3 PUSH2 0x577 JUMP JUMPDEST SWAP2 POP PUSH2 0xC80 DUP4 PUSH2 0x577 JUMP JUMPDEST SWAP3 POP DUP3 DUP3 ADD SWAP1 POP DUP1 DUP3 GT ISZERO PUSH2 0xC98 JUMPI PUSH2 0xC97 PUSH2 0xC3E JUMP JUMPDEST JUMPDEST SWAP3 SWAP2 POP POP JUMP JUMPDEST PUSH0 DUP2 SWAP1 POP DUP2 PUSH0 MSTORE PUSH1 0x20 PUSH0 KECCAK256 SWAP1 POP SWAP2 SWAP1 POP JUMP JUMPDEST PUSH0 PUSH1 0x20 PUSH1 0x1F DUP4 ADD DIV SWAP1 POP SWAP2 SWAP1 POP JUMP JUMPDEST PUSH0 DUP3 DUP3 SHL SWAP1 POP SWAP3 SWAP2 POP POP JUMP JUMPDEST PUSH0 PUSH1 0x8 DUP4 MUL PUSH2 0xCFA PUSH32 0xFFFFFFFFFFFFFFFFFFFFFFFFFFFFFFFFFFFFFFFFFFFFFFFFFFFFFFFFFFFFFFFF DUP3 PUSH2 0xCBF JUMP JUMPDEST PUSH2 0xD04 DUP7 DUP4 PUSH2 0xCBF JUMP JUMPDEST SWAP6 POP DUP1 NOT DUP5 AND SWAP4 POP DUP1 DUP7 AND DUP5 OR SWAP3 POP POP POP SWAP4 SWAP3 POP POP POP JUMP JUMPDEST PUSH0 DUP2 SWAP1 POP SWAP2 SWAP1 POP JUMP JUMPDEST PUSH0 PUSH2 0xD3F PUSH2 0xD3A PUSH2 0xD35 DUP5 PUSH2 0x577 JUMP JUMPDEST PUSH2 0xD1C JUMP JUMPDEST PUSH2 0x577 JUMP JUMPDEST SWAP1 POP SWAP2 SWAP1 POP JUMP JUMPDEST PUSH0 DUP2 SWAP1 POP SWAP2 SWAP1 POP JUMP JUMPDEST PUSH2 0xD58 DUP4 PUSH2 0xD25 JUMP JUMPDEST PUSH2 0xD6C PUSH2 0xD64 DUP3 PUSH2 0xD46 JUMP JUMPDEST DUP5 DUP5 SLOAD PUSH2 0xCCB JUMP JUMPDEST DUP3 SSTORE POP POP POP POP JUMP JUMPDEST PUSH0 PUSH0 SWAP1 POP SWAP1 JUMP JUMPDEST PUSH2 0xD83 PUSH2 0xD74 JUMP JUMPDEST PUSH2 0xD8E DUP2 DUP5 DUP5 PUSH2 0xD4F JUMP JUMPDEST POP POP POP JUMP JUMPDEST JUMPDEST DUP2 DUP2 LT ISZERO PUSH2 0xDB1 JUMPI PUSH2 0xDA6 PUSH0 DUP3 PUSH2 0xD7B JUMP JUMPDEST PUSH1 0x1 DUP2 ADD SWAP1 POP PUSH2 0xD94 JUMP JUMPDEST POP POP JUMP JUMPDEST PUSH1 0x1F DUP3 GT ISZERO PUSH2 0xDF6 JUMPI PUSH2 0xDC7 DUP2 PUSH2 0xC9E JUMP JUMPDEST PUSH2 0xDD0 DUP5 PUSH2 0xCB0 JUMP JUMPDEST DUP2 ADD PUSH1 0x20 DUP6 LT ISZERO PUSH2 0xDDF JUMPI DUP2 SWAP1 POP JUMPDEST PUSH2 0xDF3 PUSH2 0xDEB DUP6 PUSH2 0xCB0 JUMP JUMPDEST DUP4 ADD DUP3 PUSH2 0xD93 JUMP JUMPDEST POP POP JUMPDEST POP POP POP JUMP JUMPDEST PUSH0 DUP3 DUP3 SHR SWAP1 POP SWAP3 SWAP2 POP POP JUMP JUMPDEST PUSH0 PUSH2 0xE16 PUSH0 NOT DUP5 PUSH1 0x8 MUL PUSH2 0xDFB JUMP JUMPDEST NOT DUP1 DUP4 AND SWAP2 POP POP SWAP3 SWAP2 POP POP JUMP JUMPDEST PUSH0 PUSH2 0xE2E DUP4 DUP4 PUSH2 0xE07 JUMP JUMPDEST SWAP2 POP DUP3 PUSH1 0x2 MUL DUP3 OR SWAP1 POP SWAP3 SWAP2 POP POP JUMP JUMPDEST PUSH2 0xE47 DUP3 PUSH2 0x623 JUMP JUMPDEST PUSH8 0xFFFFFFFFFFFFFFFF DUP2 GT ISZERO PUSH2 0xE60 JUMPI PUSH2 0xE5F PUSH2 0x7B8 JUMP JUMPDEST JUMPDEST PUSH2 0xE6A DUP3 SLOAD PUSH2 0xB3E JUMP JUMPDEST PUSH2 0xE75 DUP3 DUP3 DUP6 PUSH2 0xDB5 JUMP JUMPDEST PUSH0 PUSH1 0x20 SWAP1 POP PUSH1 0x1F DUP4 GT PUSH1 0x1 DUP2 EQ PUSH2 0xEA6 JUMPI PUSH0 DUP5 ISZERO PUSH2 0xE94 JUMPI DUP3 DUP8 ADD MLOAD SWAP1 POP JUMPDEST PUSH2 0xE9E DUP6 DUP3 PUSH2 0xE23 JUMP JUMPDEST DUP7 SSTORE POP PUSH2 0xF05 JUMP JUMPDEST PUSH1 0x1F NOT DUP5 AND PUSH2 0xEB4 DUP7 PUSH2 0xC9E JUMP JUMPDEST PUSH0 JUMPDEST DUP3 DUP2 LT ISZERO PUSH2 0xEDB JUMPI DUP5 DUP10 ADD MLOAD DUP3 SSTORE PUSH1 0x1 DUP3 ADD SWAP2 POP PUSH1 0x20 DUP6 ADD SWAP5 POP PUSH1 0x20 DUP2 ADD SWAP1 POP PUSH2 0xEB6 JUMP JUMPDEST DUP7 DUP4 LT ISZERO PUSH2 0xEF8 JUMPI DUP5 DUP10 ADD MLOAD PUSH2 0xEF4 PUSH1 0x1F DUP10 AND DUP3 PUSH2 0xE07 JUMP JUMPDEST DUP4 SSTORE POP JUMPDEST PUSH1 0x1 PUSH1 0x2 DUP9 MUL ADD DUP9 SSTORE POP POP POP JUMPDEST POP POP POP POP POP POP JUMP JUMPDEST PUSH0 DUP2 SWAP1 POP DUP2 PUSH0 MSTORE PUSH1 0x20 PUSH0 KECCAK256 SWAP1 POP SWAP2 SWAP1 POP JUMP JUMPDEST PUSH1 0x1F DUP3 GT ISZERO PUSH2 0xF60 JUMPI PUSH2 0xF31 DUP2 PUSH2 0xF0D JUMP JUMPDEST PUSH2 0xF3A DUP5 PUSH2 0xCB0 JUMP JUMPDEST DUP2 ADD PUSH1 0x20 DUP6 LT ISZERO PUSH2 0xF49 JUMPI DUP2 SWAP1 POP JUMPDEST PUSH2 0xF5D PUSH2 0xF55 DUP6 PUSH2 0xCB0 JUMP JUMPDEST DUP4 ADD DUP3 PUSH2 0xD93 JUMP JUMPDEST POP POP JUMPDEST POP POP POP JUMP JUMPDEST PUSH2 0xF6E DUP3 PUSH2 0x6C5 JUMP JUMPDEST PUSH8 0xFFFFFFFFFFFFFFFF DUP2 GT ISZERO PUSH2 0xF87 JUMPI PUSH2 0xF86 PUSH2 0x7B8 JUMP JUMPDEST JUMPDEST PUSH2 0xF91 DUP3 SLOAD PUSH2 0xB3E JUMP JUMPDEST PUSH2 0xF9C DUP3 DUP3 DUP6 PUSH2 0xF1F JUMP JUMPDEST PUSH0 PUSH1 0x20 SWAP1 POP PUSH1 0x1F DUP4 GT PUSH1 0x1 DUP2 EQ PUSH2 0xFCD JUMPI PUSH0 DUP5 ISZERO PUSH2 0xFBB JUMPI DUP3 DUP8 ADD MLOAD SWAP1 POP JUMPDEST PUSH2 0xFC5 DUP6 DUP3 PUSH2 0xE23 JUMP JUMPDEST DUP7 SSTORE POP PUSH2 0x102C JUMP JUMPDEST PUSH1 0x1F NOT DUP5 AND PUSH2 0xFDB DUP7 PUSH2 0xF0D JUMP JUMPDEST PUSH0 JUMPDEST DUP3 DUP2 LT ISZERO PUSH2 0x1002 JUMPI DUP5 DUP10 ADD MLOAD DUP3 SSTORE PUSH1 0x1 DUP3 ADD SWAP2 POP PUSH1 0x20 DUP6 ADD SWAP5 POP PUSH1 0x20 DUP2 ADD SWAP1 POP PUSH2 0xFDD JUMP JUMPDEST DUP7 DUP4 LT ISZERO PUSH2 0x101F JUMPI DUP5 DUP10 ADD MLOAD PUSH2 0x101B PUSH1 0x1F DUP10 AND DUP3 PUSH2 0xE07 JUMP JUMPDEST DUP4 SSTORE POP JUMPDEST PUSH1 0x1 PUSH1 0x2 DUP9 MUL ADD DUP9 SSTORE POP POP POP JUMPDEST POP POP POP POP POP POP JUMP JUMPDEST PUSH0 PUSH1 0xE0 DUP3 ADD SWAP1 POP DUP2 DUP2 SUB PUSH0 DUP4 ADD MSTORE PUSH2 0x104C DUP2 DUP11 PUSH2 0x65B JUMP JUMPDEST SWAP1 POP PUSH2 0x105B PUSH1 0x20 DUP4 ADD DUP10 PUSH2 0x69C JUMP JUMPDEST PUSH2 0x1068 PUSH1 0x40 DUP4 ADD DUP9 PUSH2 0x69C JUMP JUMPDEST PUSH2 0x1075 PUSH1 0x60 DUP4 ADD DUP8 PUSH2 0x5D5 JUMP JUMPDEST PUSH2 0x1082 PUSH1 0x80 DUP4 ADD DUP7 PUSH2 0x5D5 JUMP JUMPDEST PUSH2 0x108F PUSH1 0xA0 DUP4 ADD DUP6 PUSH2 0x6B6 JUMP JUMPDEST DUP2 DUP2 SUB PUSH1 0xC0 DUP4 ADD MSTORE PUSH2 0x10A1 DUP2 DUP5 PUSH2 0x6DF JUMP JUMPDEST SWAP1 POP SWAP9 SWAP8 POP POP POP POP POP POP POP POP JUMP INVALID LOG2 PUSH5 0x6970667358 0x22 SLT KECCAK256 0xB0 PUSH17 0xC3AF6FDE3E465EA4F2617463580229BB6C SWAPN 0x7B DUP5 SWAP13 0xD3 NUMBER ADD 0xED 0xD0 0xEB POP 0xE9 PUSH31 0x64736F6C634300081E00330000000000000000000000000000000000000000 "
				},
				"gasEstimates": {
					"creation": {
						"codeDepositCost": "865000",
						"executionCost": "901",
						"totalCost": "865901"
					},
					"external": {
						"getRecord(uint256)": "infinite",
						"lastNonceBySender(address)": "2824",
						"lastRecordId()": "2468",
						"storeRecord(bytes,bytes32,bytes32,uint256,uint256,bool,string)": "infinite"
					}
				},
				"methodIdentifiers": {
					"getRecord(uint256)": "03e9e609",
					"lastNonceBySender(address)": "55438bf6",
					"lastRecordId()": "fea68189",
					"storeRecord(bytes,bytes32,bytes32,uint256,uint256,bool,string)": "38cbdb19"
				}
			},
			"storageLayout": {
				"storage": [
					{
						"astId": 22,
						"contract": "contracts/Demo.sol:Demo",
						"label": "lastRecordId",
						"offset": 0,
						"slot": "0",
						"type": "t_uint256"
					},
					{
						"astId": 27,
						"contract": "contracts/Demo.sol:Demo",
						"label": "records",
						"offset": 0,
						"slot": "1",
						"type": "t_mapping(t_uint256,t_struct(Record)20_storage)"
					},
					{
						"astId": 31,
						"contract": "contracts/Demo.sol:Demo",
						"label": "lastNonceBySender",
						"offset": 0,
						"slot": "2",
						"type": "t_mapping(t_address,t_uint256)"
					}
				],
				"types": {
					"t_address": {
						"encoding": "inplace",
						"label": "address",
						"numberOfBytes": "20"
					},
					"t_bool": {
						"encoding": "inplace",
						"label": "bool",
						"numberOfBytes": "1"
					},
					"t_bytes32": {
						"encoding": "inplace",
						"label": "bytes32",
						"numberOfBytes": "32"
					},
					"t_bytes_storage": {
						"encoding": "bytes",
						"label": "bytes",
						"numberOfBytes": "32"
					},
					"t_mapping(t_address,t_uint256)": {
						"encoding": "mapping",
						"key": "t_address",
						"label": "mapping(address => uint256)",
						"numberOfBytes": "32",
						"value": "t_uint256"
					},
					"t_mapping(t_uint256,t_struct(Record)20_storage)": {
						"encoding": "mapping",
						"key": "t_uint256",
						"label": "mapping(uint256 => struct Demo.Record)",
						"numberOfBytes": "32",
						"value": "t_struct(Record)20_storage"
					},
					"t_string_storage": {
						"encoding": "bytes",
						"label": "string",
						"numberOfBytes": "32"
					},
					"t_struct(Record)20_storage": {
						"encoding": "inplace",
						"label": "struct Demo.Record",
						"members": [
							{
								"astId": 3,
								"contract": "contracts/Demo.sol:Demo",
								"label": "recordId",
								"offset": 0,
								"slot": "0",
								"type": "t_uint256"
							},
							{
								"astId": 5,
								"contract": "contracts/Demo.sol:Demo",
								"label": "owner",
								"offset": 0,
								"slot": "1",
								"type": "t_address"
							},
							{
								"astId": 7,
								"contract": "contracts/Demo.sol:Demo",
								"label": "payload",
								"offset": 0,
								"slot": "2",
								"type": "t_bytes_storage"
							},
							{
								"astId": 9,
								"contract": "contracts/Demo.sol:Demo",
								"label": "payloadHash",
								"offset": 0,
								"slot": "3",
								"type": "t_bytes32"
							},
							{
								"astId": 11,
								"contract": "contracts/Demo.sol:Demo",
								"label": "pqcProofHash",
								"offset": 0,
								"slot": "4",
								"type": "t_bytes32"
							},
							{
								"astId": 13,
								"contract": "contracts/Demo.sol:Demo",
								"label": "appNonce",
								"offset": 0,
								"slot": "5",
								"type": "t_uint256"
							},
							{
								"astId": 15,
								"contract": "contracts/Demo.sol:Demo",
								"label": "timestamp",
								"offset": 0,
								"slot": "6",
								"type": "t_uint256"
							},
							{
								"astId": 17,
								"contract": "contracts/Demo.sol:Demo",
								"label": "encrypted",
								"offset": 0,
								"slot": "7",
								"type": "t_bool"
							},
							{
								"astId": 19,
								"contract": "contracts/Demo.sol:Demo",
								"label": "mode",
								"offset": 0,
								"slot": "8",
								"type": "t_string_storage"
							}
						],
						"numberOfBytes": "288"
					},
					"t_uint256": {
						"encoding": "inplace",
						"label": "uint256",
						"numberOfBytes": "32"
					}
				}
			},
			"userdoc": {
				"kind": "user",
				"methods": {},
				"version": 1
			}
		}
	}
}